{
  "contractName": "FNTNConverter",
  "abi": [
    {
      "inputs": [
        {
          "internalType": "uint256",
          "name": "shardId",
          "type": "uint256"
        }
      ],
      "name": "shardIdToTokenId",
      "outputs": [
        {
          "internalType": "uint256",
          "name": "",
          "type": "uint256"
        }
      ],
      "stateMutability": "pure",
      "type": "function"
    },
    {
      "inputs": [
        {
          "internalType": "uint256",
          "name": "tokenId",
          "type": "uint256"
        }
      ],
      "name": "tokenIdToShardId",
      "outputs": [
        {
          "internalType": "uint256",
          "name": "",
          "type": "uint256"
        }
      ],
      "stateMutability": "pure",
      "type": "function"
    }
  ],
  "bytecode": "0x608060405234801561001057600080fd5b5061048b806100206000396000f3fe608060405234801561001057600080fd5b50600436106100365760003560e01c80637feac7771461003b578063c8631b7b1461006a575b600080fd5b6100586004803603602081101561005157600080fd5b5035610087565b60408051918252519081900360200190f35b6100586004803603602081101561008057600080fd5b5035610260565b60006104cd821015801561009d575061058c8211155b6100d85760405162461bcd60e51b81526004018080602001828103825260218152602001806104356021913960400191505060405180910390fd5b6000826104cd14156100ec575060af61025a565b826104ce14156100fe5750600161025a565b6104cf8311801561011057506104d583105b1561012157506104cc19820161025a565b6104d58311801561013357506104f383105b1561014457506104cd19820161025a565b6104f383118015610156575061050e83105b1561016757506104ce19820161025a565b61050d83118015610179575061051183105b1561018a575061046819820161025a565b82610512141561019c575060a961025a565b8261051314156101ae575060aa61025a565b8261051414156101c0575060a861025a565b610514831180156101d2575061051983105b156101e3575061046919820161025a565b610518831180156101f5575061052683105b1561020657506104d919820161025a565b61052783118015610218575061054983105b1561022957506104db19820161025a565b6105498311801561023b575061058283105b1561024c57506104dc19820161025a565b8261058c141561025a575060025b92915050565b600060018210158015610274575060af8211155b6102c5576040805162461bcd60e51b815260206004820152601d60248201527f456e746572206120736861726449642066726f6d203120746f20313735000000604482015290519081900360640190fd5b600082600114156102d957506104ce61025a565b82600214156102eb575061058c61025a565b6002831180156102fb5750600883105b1561030b57506104cd820161025a565b60078311801561031b5750602583105b1561032b57506104ce820161025a565b60248311801561033b5750603f83105b1561034b57506104cf820161025a565b603e8311801561035b5750604c83105b1561036b57506104da820161025a565b604b8311801561037b5750606d83105b1561038b57506104dc820161025a565b606c8311801561039b575060a583105b156103ab57506104dd820161025a565b60a4831180156103bb575060a883105b156103cb5750610469820161025a565b8260a814156103dd575061051461025a565b8260a914156103ef575061051261025a565b8260aa1415610401575061051361025a565b60aa83118015610411575060af83105b15610421575061046a820161025a565b8260af141561025a57506104cd9291505056fe456e746572206120746f6b656e49642066726f6d203132323920746f2031343230a2646970667358221220b7cb01d6da90a38015456d8a7dcb9528690ef02340b1190c7741f86f535af50664736f6c63430007060033",
  "immutableReferences": {},
  "source": "// SPDX-License-Identifier: MIT\n\npragma solidity ^0.7.0;\n\ncontract FNTNConverter {\n  /*\n   * The tokenIds are not contiguous in the original contract\n   * Given the id of a shard (the numner in the title, eg \"FNTN // 62\")\n   * this outputs the actual tokenId in the original shared contract.\n   */\n  function shardIdToTokenId(uint shardId) public pure returns (uint) {\n    // Check up front for a valid id. Saves gas on failure, but also on valid\n    // shardIds we can save some gas by not needing SafeMath function calls\n    require(shardId >= 1 && shardId <= 175, \"Enter a shardId from 1 to 175\");\n\n    uint tokenId = 0;\n\n    if (shardId == 1) {\n      tokenId = 1230;\n    } else if (shardId == 2) {\n      tokenId = 1420;\n    } else if (shardId > 2 && shardId < 8) {\n      tokenId = 1229 + shardId;\n    } else if (shardId > 7 && shardId < 37) {\n      tokenId = 1230 + shardId;\n    } else if (shardId > 36 && shardId < 63) {\n      tokenId = 1231 + shardId;\n    } else if (shardId > 62 && shardId < 76) {\n      tokenId = 1242 + shardId;\n    } else if (shardId > 75 && shardId < 109) {\n      tokenId = 1244 + shardId;\n    } else if (shardId > 108 && shardId < 165) {\n      tokenId = 1245 + shardId;\n    } else if (shardId > 164 && shardId < 168) {\n      tokenId = 1129 + shardId;\n    } else if (shardId == 168) {\n      tokenId = 1300;\n    } else if (shardId == 169) {\n      tokenId = 1298;\n    } else if (shardId == 170) {\n      tokenId = 1299;\n    } else if (shardId > 170 && shardId < 175) {\n      tokenId = 1130 + shardId;\n    } else if (shardId == 175) {\n      tokenId = 1229;\n    }\n\n    return tokenId;\n  }\n  \n  function tokenIdToShardId(uint tokenId) public pure returns (uint) {\n    // Check up front for a valid id. Saves gas on failure, but also on valid\n    // shardIds we can save some gas by not needing SafeMath function calls\n    require(tokenId >= 1229 && tokenId <= 1420, \"Enter a tokenId from 1229 to 1420\");\n    uint shardId = 0;\n\n    if (tokenId == 1229) {\n      shardId = 175;\n    } else if (tokenId == 1230) {\n      shardId = 1;\n    } else if(tokenId > 1231 && tokenId < 1237) {\n      shardId = tokenId - 1229;\n    } else if(tokenId > 1237 && tokenId < 1267) {\n      shardId = tokenId - 1230;\n    } else if(tokenId > 1267 && tokenId < 1294) {\n      shardId = tokenId - 1231;\n    } else if(tokenId > 1293 && tokenId < 1297) {\n      shardId = tokenId - 1129;\n    } else if(tokenId == 1298) {\n      shardId = 169;\n    } else if(tokenId == 1299) {\n       shardId = 170;\n    } else if(tokenId == 1300) {\n       shardId = 168;\n    } else if(tokenId > 1300 && tokenId < 1305) {\n      shardId = tokenId - 1130;\n    } else if(tokenId > 1304 && tokenId < 1318) {\n      shardId = tokenId - 1242;\n    } else if(tokenId > 1319 && tokenId < 1353) {\n      shardId = tokenId - 1244;\n    } else if(tokenId > 1353 && tokenId < 1410) {\n      shardId = tokenId - 1245;\n    } else if(tokenId == 1420) {\n      shardId = 2;\n    }\n\n    return shardId;\n  }\n}\n",
  "sourcePath": "/Users/jon/Code/shl0ms-ai-shards/contracts/FNTNConverter.sol",
  "compiler": {
    "name": "solc",
    "version": "0.7.6+commit.7338295f.Emscripten.clang"
  },
  "schemaVersion": "3.3.4",
  "updatedAt": "2021-09-07T00:08:37.020Z",
  "devdoc": {
    "kind": "dev",
    "methods": {},
    "version": 1
  },
  "userdoc": {
    "kind": "user",
    "methods": {},
    "version": 1
  }
}