{
  "contractName": "ThisShardDoesNotExist",
  "abi": [
    {
      "inputs": [
        {
          "internalType": "string",
          "name": "baseURI",
          "type": "string"
        }
      ],
      "stateMutability": "nonpayable",
      "type": "constructor"
    },
    {
      "anonymous": false,
      "inputs": [
        {
          "indexed": true,
          "internalType": "address",
          "name": "owner",
          "type": "address"
        },
        {
          "indexed": true,
          "internalType": "address",
          "name": "approved",
          "type": "address"
        },
        {
          "indexed": true,
          "internalType": "uint256",
          "name": "tokenId",
          "type": "uint256"
        }
      ],
      "name": "Approval",
      "type": "event"
    },
    {
      "anonymous": false,
      "inputs": [
        {
          "indexed": true,
          "internalType": "address",
          "name": "owner",
          "type": "address"
        },
        {
          "indexed": true,
          "internalType": "address",
          "name": "operator",
          "type": "address"
        },
        {
          "indexed": false,
          "internalType": "bool",
          "name": "approved",
          "type": "bool"
        }
      ],
      "name": "ApprovalForAll",
      "type": "event"
    },
    {
      "anonymous": false,
      "inputs": [
        {
          "indexed": true,
          "internalType": "address",
          "name": "previousOwner",
          "type": "address"
        },
        {
          "indexed": true,
          "internalType": "address",
          "name": "newOwner",
          "type": "address"
        }
      ],
      "name": "OwnershipTransferred",
      "type": "event"
    },
    {
      "anonymous": false,
      "inputs": [
        {
          "indexed": true,
          "internalType": "address",
          "name": "from",
          "type": "address"
        },
        {
          "indexed": true,
          "internalType": "address",
          "name": "to",
          "type": "address"
        },
        {
          "indexed": true,
          "internalType": "uint256",
          "name": "tokenId",
          "type": "uint256"
        }
      ],
      "name": "Transfer",
      "type": "event"
    },
    {
      "inputs": [],
      "name": "MAX_TOKENS",
      "outputs": [
        {
          "internalType": "uint256",
          "name": "",
          "type": "uint256"
        }
      ],
      "stateMutability": "view",
      "type": "function",
      "constant": true
    },
    {
      "inputs": [],
      "name": "SHARD_PRICE",
      "outputs": [
        {
          "internalType": "uint256",
          "name": "",
          "type": "uint256"
        }
      ],
      "stateMutability": "view",
      "type": "function",
      "constant": true
    },
    {
      "inputs": [
        {
          "internalType": "address",
          "name": "to",
          "type": "address"
        },
        {
          "internalType": "uint256",
          "name": "tokenId",
          "type": "uint256"
        }
      ],
      "name": "approve",
      "outputs": [],
      "stateMutability": "nonpayable",
      "type": "function"
    },
    {
      "inputs": [
        {
          "internalType": "address",
          "name": "owner",
          "type": "address"
        }
      ],
      "name": "balanceOf",
      "outputs": [
        {
          "internalType": "uint256",
          "name": "",
          "type": "uint256"
        }
      ],
      "stateMutability": "view",
      "type": "function",
      "constant": true
    },
    {
      "inputs": [],
      "name": "baseURI",
      "outputs": [
        {
          "internalType": "string",
          "name": "",
          "type": "string"
        }
      ],
      "stateMutability": "view",
      "type": "function",
      "constant": true
    },
    {
      "inputs": [],
      "name": "fntnAddress",
      "outputs": [
        {
          "internalType": "address",
          "name": "",
          "type": "address"
        }
      ],
      "stateMutability": "view",
      "type": "function",
      "constant": true
    },
    {
      "inputs": [
        {
          "internalType": "uint256",
          "name": "tokenId",
          "type": "uint256"
        }
      ],
      "name": "getApproved",
      "outputs": [
        {
          "internalType": "address",
          "name": "",
          "type": "address"
        }
      ],
      "stateMutability": "view",
      "type": "function",
      "constant": true
    },
    {
      "inputs": [],
      "name": "hasSaleStarted",
      "outputs": [
        {
          "internalType": "bool",
          "name": "",
          "type": "bool"
        }
      ],
      "stateMutability": "view",
      "type": "function",
      "constant": true
    },
    {
      "inputs": [
        {
          "internalType": "address",
          "name": "owner",
          "type": "address"
        },
        {
          "internalType": "address",
          "name": "operator",
          "type": "address"
        }
      ],
      "name": "isApprovedForAll",
      "outputs": [
        {
          "internalType": "bool",
          "name": "",
          "type": "bool"
        }
      ],
      "stateMutability": "view",
      "type": "function",
      "constant": true
    },
    {
      "inputs": [],
      "name": "name",
      "outputs": [
        {
          "internalType": "string",
          "name": "",
          "type": "string"
        }
      ],
      "stateMutability": "view",
      "type": "function",
      "constant": true
    },
    {
      "inputs": [],
      "name": "owner",
      "outputs": [
        {
          "internalType": "address",
          "name": "",
          "type": "address"
        }
      ],
      "stateMutability": "view",
      "type": "function",
      "constant": true
    },
    {
      "inputs": [
        {
          "internalType": "uint256",
          "name": "tokenId",
          "type": "uint256"
        }
      ],
      "name": "ownerOf",
      "outputs": [
        {
          "internalType": "address",
          "name": "",
          "type": "address"
        }
      ],
      "stateMutability": "view",
      "type": "function",
      "constant": true
    },
    {
      "inputs": [],
      "name": "renounceOwnership",
      "outputs": [],
      "stateMutability": "nonpayable",
      "type": "function"
    },
    {
      "inputs": [
        {
          "internalType": "address",
          "name": "from",
          "type": "address"
        },
        {
          "internalType": "address",
          "name": "to",
          "type": "address"
        },
        {
          "internalType": "uint256",
          "name": "tokenId",
          "type": "uint256"
        }
      ],
      "name": "safeTransferFrom",
      "outputs": [],
      "stateMutability": "nonpayable",
      "type": "function"
    },
    {
      "inputs": [
        {
          "internalType": "address",
          "name": "from",
          "type": "address"
        },
        {
          "internalType": "address",
          "name": "to",
          "type": "address"
        },
        {
          "internalType": "uint256",
          "name": "tokenId",
          "type": "uint256"
        },
        {
          "internalType": "bytes",
          "name": "_data",
          "type": "bytes"
        }
      ],
      "name": "safeTransferFrom",
      "outputs": [],
      "stateMutability": "nonpayable",
      "type": "function"
    },
    {
      "inputs": [
        {
          "internalType": "address",
          "name": "operator",
          "type": "address"
        },
        {
          "internalType": "bool",
          "name": "approved",
          "type": "bool"
        }
      ],
      "name": "setApprovalForAll",
      "outputs": [],
      "stateMutability": "nonpayable",
      "type": "function"
    },
    {
      "inputs": [],
      "name": "symbol",
      "outputs": [
        {
          "internalType": "string",
          "name": "",
          "type": "string"
        }
      ],
      "stateMutability": "view",
      "type": "function",
      "constant": true
    },
    {
      "inputs": [
        {
          "internalType": "uint256",
          "name": "index",
          "type": "uint256"
        }
      ],
      "name": "tokenByIndex",
      "outputs": [
        {
          "internalType": "uint256",
          "name": "",
          "type": "uint256"
        }
      ],
      "stateMutability": "view",
      "type": "function",
      "constant": true
    },
    {
      "inputs": [
        {
          "internalType": "address",
          "name": "owner",
          "type": "address"
        },
        {
          "internalType": "uint256",
          "name": "index",
          "type": "uint256"
        }
      ],
      "name": "tokenOfOwnerByIndex",
      "outputs": [
        {
          "internalType": "uint256",
          "name": "",
          "type": "uint256"
        }
      ],
      "stateMutability": "view",
      "type": "function",
      "constant": true
    },
    {
      "inputs": [],
      "name": "totalSupply",
      "outputs": [
        {
          "internalType": "uint256",
          "name": "",
          "type": "uint256"
        }
      ],
      "stateMutability": "view",
      "type": "function",
      "constant": true
    },
    {
      "inputs": [
        {
          "internalType": "address",
          "name": "from",
          "type": "address"
        },
        {
          "internalType": "address",
          "name": "to",
          "type": "address"
        },
        {
          "internalType": "uint256",
          "name": "tokenId",
          "type": "uint256"
        }
      ],
      "name": "transferFrom",
      "outputs": [],
      "stateMutability": "nonpayable",
      "type": "function"
    },
    {
      "inputs": [
        {
          "internalType": "address",
          "name": "newOwner",
          "type": "address"
        }
      ],
      "name": "transferOwnership",
      "outputs": [],
      "stateMutability": "nonpayable",
      "type": "function"
    },
    {
      "inputs": [
        {
          "internalType": "uint256",
          "name": "",
          "type": "uint256"
        },
        {
          "internalType": "uint256",
          "name": "_salePrice",
          "type": "uint256"
        }
      ],
      "name": "royaltyInfo",
      "outputs": [
        {
          "internalType": "address",
          "name": "receiver",
          "type": "address"
        },
        {
          "internalType": "uint256",
          "name": "royaltyAmount",
          "type": "uint256"
        }
      ],
      "stateMutability": "view",
      "type": "function",
      "constant": true
    },
    {
      "inputs": [
        {
          "internalType": "uint8",
          "name": "newRoyaltyBPS",
          "type": "uint8"
        }
      ],
      "name": "updateRoyaltyBPS",
      "outputs": [],
      "stateMutability": "nonpayable",
      "type": "function"
    },
    {
      "inputs": [
        {
          "internalType": "address",
          "name": "_owner",
          "type": "address"
        }
      ],
      "name": "tokensOfOwner",
      "outputs": [
        {
          "internalType": "uint256[]",
          "name": "",
          "type": "uint256[]"
        }
      ],
      "stateMutability": "view",
      "type": "function",
      "constant": true
    },
    {
      "inputs": [],
      "name": "mint",
      "outputs": [],
      "stateMutability": "payable",
      "type": "function",
      "payable": true
    },
    {
      "inputs": [
        {
          "internalType": "uint256",
          "name": "shardId",
          "type": "uint256"
        }
      ],
      "name": "mintWithShard",
      "outputs": [],
      "stateMutability": "payable",
      "type": "function",
      "payable": true
    },
    {
      "inputs": [],
      "name": "calculateSelector",
      "outputs": [
        {
          "internalType": "bytes4",
          "name": "",
          "type": "bytes4"
        }
      ],
      "stateMutability": "pure",
      "type": "function",
      "constant": true
    },
    {
      "inputs": [
        {
          "internalType": "bytes4",
          "name": "interfaceId",
          "type": "bytes4"
        }
      ],
      "name": "supportsInterface",
      "outputs": [
        {
          "internalType": "bool",
          "name": "",
          "type": "bool"
        }
      ],
      "stateMutability": "view",
      "type": "function",
      "constant": true
    },
    {
      "inputs": [
        {
          "internalType": "uint256",
          "name": "tokenId",
          "type": "uint256"
        }
      ],
      "name": "tokenURI",
      "outputs": [
        {
          "internalType": "string",
          "name": "",
          "type": "string"
        }
      ],
      "stateMutability": "view",
      "type": "function",
      "constant": true
    },
    {
      "inputs": [
        {
          "internalType": "string",
          "name": "baseURI",
          "type": "string"
        }
      ],
      "name": "setBaseURI",
      "outputs": [],
      "stateMutability": "nonpayable",
      "type": "function"
    },
    {
      "inputs": [],
      "name": "getNextPublicTokenId",
      "outputs": [
        {
          "internalType": "uint256",
          "name": "",
          "type": "uint256"
        }
      ],
      "stateMutability": "view",
      "type": "function",
      "constant": true
    },
    {
      "inputs": [],
      "name": "startSale",
      "outputs": [],
      "stateMutability": "nonpayable",
      "type": "function"
    },
    {
      "inputs": [],
      "name": "pauseSale",
      "outputs": [],
      "stateMutability": "nonpayable",
      "type": "function"
    },
    {
      "inputs": [],
      "name": "withdrawAll",
      "outputs": [],
      "stateMutability": "payable",
      "type": "function",
      "payable": true
    }
  ],
  "bytecode": "0x6080604052600c805460ff1916905560b0600d55600e8054732fb704d243cfa179ffad4d87acb1d36bcf243a446001600160a01b03199182161791829055600f80546001600160a01b03909316929091169190911760ff60a01b1916601960a21b1790553480156200007057600080fd5b5060405162002d8538038062002d85833981810160405260208110156200009657600080fd5b8101908080516040519392919084640100000000821115620000b757600080fd5b908301906020820185811115620000cd57600080fd5b8251640100000000811182820188101715620000e857600080fd5b82525081516020918201929091019080838360005b8381101562000117578181015183820152602001620000fd565b50505050905090810190601f168015620001455780820380516001836020036101000a031916815260200191505b5060408181018152601982527f5468697320536861726420446f6573204e6f74204578697374000000000000006020808401919091528151808301909252600682526520a4a3272a2760d11b908201529093509150620001ae90506301ffc9a760e01b62000284565b8151620001c3906006906020850190620003bc565b508051620001d9906007906020840190620003bc565b50620001ec6380ac58cd60e01b62000284565b620001fe635b5e139f60e01b62000284565b6200021063780e9d6360e01b62000284565b50600090506200021f62000309565b600a80546001600160a01b0319166001600160a01b038316908117909155604051919250906000907f8be0079c531659141344cd1fd0a4f28419497f9722a3daafe3b4186f6b6457e0908290a3506001600b556200027d816200030d565b5062000468565b6001600160e01b03198082161415620002e4576040805162461bcd60e51b815260206004820152601c60248201527f4552433136353a20696e76616c696420696e7465726661636520696400000000604482015290519081900360640190fd5b6001600160e01b0319166000908152602081905260409020805460ff19166001179055565b3390565b6200031762000309565b6001600160a01b03166200032a62000394565b6001600160a01b03161462000386576040805162461bcd60e51b815260206004820181905260248201527f4f776e61626c653a2063616c6c6572206973206e6f7420746865206f776e6572604482015290519081900360640190fd5b6200039181620003a3565b50565b600a546001600160a01b031690565b8051620003b8906009906020840190620003bc565b5050565b828054600181600116156101000203166002900490600052602060002090601f016020900481019282620003f457600085556200043f565b82601f106200040f57805160ff19168380011785556200043f565b828001600101855582156200043f579182015b828111156200043f57825182559160200191906001019062000422565b506200044d92915062000451565b5090565b5b808211156200044d576000815560010162000452565b61290d80620004786000396000f3fe6080604052600436106101c45760003560e01c80636c0360eb116100f8578063a864e86b11610090578063a864e86b14610718578063b66a0e5d14610735578063b88d4fde1461074a578063bb71eb3b1461081b578063c87b56dd1461084d578063e985e9c514610877578063eef5deb1146108b2578063f2fde38b146108df578063f47c84c514610912576101c4565b80636c0360eb146105b657806370a08231146105cb578063715018a6146105fe57806373bde577146106135780638462151c14610628578063853828b6146106ab5780638da5cb5b146106b357806395d89b41146106c8578063a22cb465146106dd576101c4565b806326e7fef31161016b57806326e7fef3146103a357806327fa3f24146103b85780632a55205a146103cd5780632f745c591461042057806342842e0e146104595780634f6ccce71461049c57806355367ba9146104c657806355f804b3146104db5780636352211e1461058c576101c4565b806301ffc9a7146101c957806306fdde0314610211578063081812fc1461029b578063095ea7b3146102e15780631249c58b1461031c57806318160ddd146103245780631c8b232d1461034b57806323b872dd14610360575b600080fd5b3480156101d557600080fd5b506101fd600480360360208110156101ec57600080fd5b50356001600160e01b031916610927565b604080519115158252519081900360200190f35b34801561021d57600080fd5b5061022661093a565b6040805160208082528351818301528351919283929083019185019080838360005b83811015610260578181015183820152602001610248565b50505050905090810190601f16801561028d5780820380516001836020036101000a031916815260200191505b509250505060405180910390f35b3480156102a757600080fd5b506102c5600480360360208110156102be57600080fd5b50356109d0565b604080516001600160a01b039092168252519081900360200190f35b3480156102ed57600080fd5b5061031a6004803603604081101561030457600080fd5b506001600160a01b038135169060200135610a32565b005b61031a610b0d565b34801561033057600080fd5b50610339610c7f565b60408051918252519081900360200190f35b34801561035757600080fd5b506101fd610c90565b34801561036c57600080fd5b5061031a6004803603606081101561038357600080fd5b506001600160a01b03813581169160208101359091169060400135610c99565b3480156103af57600080fd5b50610339610cf0565b3480156103c457600080fd5b50610339610cf6565b3480156103d957600080fd5b506103fd600480360360408110156103f057600080fd5b5080359060200135610d01565b604080516001600160a01b03909316835260208301919091528051918290030190f35b34801561042c57600080fd5b506103396004803603604081101561044357600080fd5b506001600160a01b038135169060200135610d2b565b34801561046557600080fd5b5061031a6004803603606081101561047c57600080fd5b506001600160a01b03813581169160208101359091169060400135610d56565b3480156104a857600080fd5b50610339600480360360208110156104bf57600080fd5b5035610d71565b3480156104d257600080fd5b5061031a610d87565b3480156104e757600080fd5b5061031a600480360360208110156104fe57600080fd5b810190602081018135600160201b81111561051857600080fd5b82018360208201111561052a57600080fd5b803590602001918460018302840111600160201b8311171561054b57600080fd5b91908080601f016020809104026020016040519081016040528093929190818152602001838380828437600092019190915250929550610df5945050505050565b34801561059857600080fd5b506102c5600480360360208110156105af57600080fd5b5035610e63565b3480156105c257600080fd5b50610226610e8b565b3480156105d757600080fd5b50610339600480360360208110156105ee57600080fd5b50356001600160a01b0316610eec565b34801561060a57600080fd5b5061031a610f54565b34801561061f57600080fd5b506102c5611000565b34801561063457600080fd5b5061065b6004803603602081101561064b57600080fd5b50356001600160a01b031661100f565b60408051602080825283518183015283519192839290830191858101910280838360005b8381101561069757818101518382015260200161067f565b505050509050019250505060405180910390f35b61031a6110bd565b3480156106bf57600080fd5b506102c5611145565b3480156106d457600080fd5b50610226611154565b3480156106e957600080fd5b5061031a6004803603604081101561070057600080fd5b506001600160a01b03813516906020013515156111b5565b61031a6004803603602081101561072e57600080fd5b50356112b6565b34801561074157600080fd5b5061031a611549565b34801561075657600080fd5b5061031a6004803603608081101561076d57600080fd5b6001600160a01b03823581169260208101359091169160408201359190810190608081016060820135600160201b8111156107a757600080fd5b8201836020820111156107b957600080fd5b803590602001918460018302840111600160201b831117156107da57600080fd5b91908080601f0160208091040260200160405190810160405280939291908181526020018383808284376000920191909152509295506115ba945050505050565b34801561082757600080fd5b50610830611618565b604080516001600160e01b03199092168252519081900360200190f35b34801561085957600080fd5b506102266004803603602081101561087057600080fd5b5035611623565b34801561088357600080fd5b506101fd6004803603604081101561089a57600080fd5b506001600160a01b0381358116916020013516611744565b3480156108be57600080fd5b5061031a600480360360208110156108d557600080fd5b503560ff16611772565b3480156108eb57600080fd5b5061031a6004803603602081101561090257600080fd5b50356001600160a01b0316611849565b34801561091e57600080fd5b5061033961194c565b600061093282611952565b90505b919050565b60068054604080516020601f60026000196101006001881615020190951694909404938401819004810282018101909252828152606093909290918301828280156109c65780601f1061099b576101008083540402835291602001916109c6565b820191906000526020600020905b8154815290600101906020018083116109a957829003601f168201915b5050505050905090565b60006109db82611971565b610a165760405162461bcd60e51b815260040180806020018281038252602c8152602001806127e2602c913960400191505060405180910390fd5b506000908152600460205260409020546001600160a01b031690565b6000610a3d82610e63565b9050806001600160a01b0316836001600160a01b03161415610a905760405162461bcd60e51b81526004018080602001828103825260218152602001806128866021913960400191505060405180910390fd5b806001600160a01b0316610aa261197e565b6001600160a01b03161480610ac35750610ac381610abe61197e565b611744565b610afe5760405162461bcd60e51b81526004018080602001828103825260388152602001806127356038913960400191505060405180910390fd5b610b088383611982565b505050565b6002600b541415610b65576040805162461bcd60e51b815260206004820152601f60248201527f5265656e7472616e637947756172643a207265656e7472616e742063616c6c00604482015290519081900360640190fd5b6002600b55600d5461029a1015610bba576040805162461bcd60e51b8152602060048201526014602482015273576520617265206174206d617820737570706c7960601b604482015290519081900360640190fd5b600c5460ff16610c07576040805162461bcd60e51b815260206004820152601360248201527214d85b19481a185cdb89dd081cdd185c9d1959606a1b604482015290519081900360640190fd5b66f52322698080003414610c62576040805162461bcd60e51b815260206004820152601d60248201527f45746865722076616c756520726571756972656420697320302e303639000000604482015290519081900360640190fd5b600d805460018101909155610c789033906119f0565b6001600b55565b6000610c8b6002611a0e565b905090565b600c5460ff1681565b610caa610ca461197e565b82611a19565b610ce55760405162461bcd60e51b81526004018080602001828103825260318152602001806128a76031913960400191505060405180910390fd5b610b08838383611abd565b600d5490565b66f523226980800081565b600080610d0c611145565b600f5461271090600160a01b900460ff16850204915091509250929050565b6001600160a01b0382166000908152600160205260408120610d4d9083611c09565b90505b92915050565b610b08838383604051806020016040528060008152506115ba565b600080610d7f600284611c15565b509392505050565b610d8f61197e565b6001600160a01b0316610da0611145565b6001600160a01b031614610de9576040805162461bcd60e51b8152602060048201819052602482015260008051602061280e833981519152604482015290519081900360640190fd5b600c805460ff19169055565b610dfd61197e565b6001600160a01b0316610e0e611145565b6001600160a01b031614610e57576040805162461bcd60e51b8152602060048201819052602482015260008051602061280e833981519152604482015290519081900360640190fd5b610e6081611c31565b50565b6000610932826040518060600160405280602981526020016127976029913960029190611c44565b60098054604080516020601f60026000196101006001881615020190951694909404938401819004810282018101909252828152606093909290918301828280156109c65780601f1061099b576101008083540402835291602001916109c6565b60006001600160a01b038216610f335760405162461bcd60e51b815260040180806020018281038252602a81526020018061276d602a913960400191505060405180910390fd5b6001600160a01b038216600090815260016020526040902061093290611a0e565b610f5c61197e565b6001600160a01b0316610f6d611145565b6001600160a01b031614610fb6576040805162461bcd60e51b8152602060048201819052602482015260008051602061280e833981519152604482015290519081900360640190fd5b600a546040516000916001600160a01b0316907f8be0079c531659141344cd1fd0a4f28419497f9722a3daafe3b4186f6b6457e0908390a3600a80546001600160a01b0319169055565b600e546001600160a01b031681565b6060600061101c83610eec565b905080611039575050604080516000815260208101909152610935565b60008167ffffffffffffffff8111801561105257600080fd5b5060405190808252806020026020018201604052801561107c578160200160208202803683370190505b50905060005b828110156110b3576110948582610d2b565b8282815181106110a057fe5b6020908102919091010152600101611082565b5091506109359050565b6110c561197e565b6001600160a01b03166110d6611145565b6001600160a01b03161461111f576040805162461bcd60e51b8152602060048201819052602482015260008051602061280e833981519152604482015290519081900360640190fd5b60405133904780156108fc02916000818181858888f1935050505061114357600080fd5b565b600a546001600160a01b031690565b60078054604080516020601f60026000196101006001881615020190951694909404938401819004810282018101909252828152606093909290918301828280156109c65780601f1061099b576101008083540402835291602001916109c6565b6111bd61197e565b6001600160a01b0316826001600160a01b0316141561121f576040805162461bcd60e51b815260206004820152601960248201527822a9219b99189d1030b8383937bb32903a379031b0b63632b960391b604482015290519081900360640190fd5b806005600061122c61197e565b6001600160a01b03908116825260208083019390935260409182016000908120918716808252919093529120805460ff19169215159290921790915561127061197e565b6001600160a01b03167f17307eab39ab6107e8899845ad3d59bd9653f200f220920489ca2b5937696c318360405180821515815260200191505060405180910390a35050565b6002600b54141561130e576040805162461bcd60e51b815260206004820152601f60248201527f5265656e7472616e637947756172643a207265656e7472616e742063616c6c00604482015290519081900360640190fd5b6002600b55600c5460ff16611360576040805162461bcd60e51b815260206004820152601360248201527214d85b19481a185cdb89dd081cdd185c9d1959606a1b604482015290519081900360640190fd5b66f523226980800034146113bb576040805162461bcd60e51b815260206004820152601d60248201527f45746865722076616c756520726571756972656420697320302e303639000000604482015290519081900360640190fd5b6104cd81101580156113cf575061058c8111155b611420576040805162461bcd60e51b815260206004820181905260248201527f456e7465722061207368617249642066726f6d203132323920746f2031343230604482015290519081900360640190fd5b600f54604080516331a9108f60e11b815260048101849052905133926001600160a01b031691636352211e916024808301926020929190829003018186803b15801561146b57600080fd5b505afa15801561147f573d6000803e3d6000fd5b505050506040513d602081101561149557600080fd5b50516001600160a01b0316146114f2576040805162461bcd60e51b815260206004820152601b60248201527f4e6f7420746865206f776e6572206f6620746869732073686172640000000000604482015290519081900360640190fd5b6114fb81611971565b156115375760405162461bcd60e51b81526004018080602001828103825260228152602001806127136022913960400191505060405180910390fd5b61154133826119f0565b506001600b55565b61155161197e565b6001600160a01b0316611562611145565b6001600160a01b0316146115ab576040805162461bcd60e51b8152602060048201819052602482015260008051602061280e833981519152604482015290519081900360640190fd5b600c805460ff19166001179055565b6115cb6115c561197e565b83611a19565b6116065760405162461bcd60e51b81526004018080602001828103825260318152602001806128a76031913960400191505060405180910390fd5b61161284848484611c5b565b50505050565b63152a902d60e11b90565b606061162e82611971565b6116695760405162461bcd60e51b815260040180806020018281038252602f815260200180612857602f913960400191505060405180910390fd5b611671610e8b565b61167a83611cad565b6040516020018083805190602001908083835b602083106116ac5780518252601f19909201916020918201910161168d565b51815160209384036101000a600019018019909216911617905285519190930192850191508083835b602083106116f45780518252601f1990920191602091820191016116d5565b5181516020939093036101000a60001901801990911692169190911790526a17b4b73232bc173539b7b760a91b92019182525060408051808303601419018152600b909201905295945050505050565b6001600160a01b03918216600090815260056020908152604080832093909416825291909152205460ff1690565b61177a61197e565b6001600160a01b031661178b611145565b6001600160a01b0316146117d4576040805162461bcd60e51b8152602060048201819052602482015260008051602061280e833981519152604482015290519081900360640190fd5b600f5461012c600160a01b90910460ff161115611829576040805162461bcd60e51b815260206004820152600e60248201526d4e6f20677265617465722033302560901b604482015290519081900360640190fd5b600f805460ff909216600160a01b0260ff60a01b19909216919091179055565b61185161197e565b6001600160a01b0316611862611145565b6001600160a01b0316146118ab576040805162461bcd60e51b8152602060048201819052602482015260008051602061280e833981519152604482015290519081900360640190fd5b6001600160a01b0381166118f05760405162461bcd60e51b815260040180806020018281038252602681526020018061269d6026913960400191505060405180910390fd5b600a546040516001600160a01b038084169216907f8be0079c531659141344cd1fd0a4f28419497f9722a3daafe3b4186f6b6457e090600090a3600a80546001600160a01b0319166001600160a01b0392909216919091179055565b61029a81565b6001600160e01b03191660009081526020819052604090205460ff1690565b6000610932600283611d88565b3390565b600081815260046020526040902080546001600160a01b0319166001600160a01b03841690811790915581906119b782610e63565b6001600160a01b03167f8c5be1e5ebec7d5bd14f71427d1e84f3dd0314c0f7b2291e5b200ac8c7c3b92560405160405180910390a45050565b611a0a828260405180602001604052806000815250611d94565b5050565b600061093282611de6565b6000611a2482611971565b611a5f5760405162461bcd60e51b815260040180806020018281038252602c8152602001806126e7602c913960400191505060405180910390fd5b6000611a6a83610e63565b9050806001600160a01b0316846001600160a01b03161480611aa55750836001600160a01b0316611a9a846109d0565b6001600160a01b0316145b80611ab55750611ab58185611744565b949350505050565b826001600160a01b0316611ad082610e63565b6001600160a01b031614611b155760405162461bcd60e51b815260040180806020018281038252602981526020018061282e6029913960400191505060405180910390fd5b6001600160a01b038216611b5a5760405162461bcd60e51b81526004018080602001828103825260248152602001806126c36024913960400191505060405180910390fd5b611b65838383610b08565b611b70600082611982565b6001600160a01b0383166000908152600160205260409020611b929082611dea565b506001600160a01b0382166000908152600160205260409020611bb59082611df6565b50611bc260028284611e02565b5080826001600160a01b0316846001600160a01b03167fddf252ad1be2c89b69c2b068fc378daa952ba7f163c4a11628f55a4df523b3ef60405160405180910390a4505050565b6000610d4d8383611e18565b6000808080611c248686611e7c565b9097909650945050505050565b8051611a0a9060099060208401906125a7565b6000611c51848484611ef7565b90505b9392505050565b611c66848484611abd565b611c7284848484611fc1565b6116125760405162461bcd60e51b815260040180806020018281038252603281526020018061266b6032913960400191505060405180910390fd5b606081611cd257506040805180820190915260018152600360fc1b6020820152610935565b8160005b8115611cea57600101600a82049150611cd6565b60008167ffffffffffffffff81118015611d0357600080fd5b506040519080825280601f01601f191660200182016040528015611d2e576020820181803683370190505b50859350905060001982015b8315611d7f57600a840660300160f81b82828060019003935081518110611d5d57fe5b60200101906001600160f81b031916908160001a905350600a84049350611d3a565b50949350505050565b6000610d4d8383612129565b611d9e8383612141565b611dab6000848484611fc1565b610b085760405162461bcd60e51b815260040180806020018281038252603281526020018061266b6032913960400191505060405180910390fd5b5490565b6000610d4d838361226f565b6000610d4d8383612335565b6000611c5184846001600160a01b03851661237f565b81546000908210611e5a5760405162461bcd60e51b81526004018080602001828103825260228152602001806126496022913960400191505060405180910390fd5b826000018281548110611e6957fe5b9060005260206000200154905092915050565b815460009081908310611ec05760405162461bcd60e51b81526004018080602001828103825260228152602001806127c06022913960400191505060405180910390fd5b6000846000018481548110611ed157fe5b906000526020600020906002020190508060000154816001015492509250509250929050565b60008281526001840160205260408120548281611f925760405162461bcd60e51b81526004018080602001828103825283818151815260200191508051906020019080838360005b83811015611f57578181015183820152602001611f3f565b50505050905090810190601f168015611f845780820380516001836020036101000a031916815260200191505b509250505060405180910390fd5b50846000016001820381548110611fa557fe5b9060005260206000209060020201600101549150509392505050565b6000611fd5846001600160a01b0316612416565b611fe157506001611ab5565b60006120ef630a85bd0160e11b611ff661197e565b88878760405160240180856001600160a01b03168152602001846001600160a01b0316815260200183815260200180602001828103825283818151815260200191508051906020019080838360005b8381101561205d578181015183820152602001612045565b50505050905090810190601f16801561208a5780820380516001836020036101000a031916815260200191505b5095505050505050604051602081830303815290604052906001600160e01b0319166020820180516001600160e01b03838183161783525050505060405180606001604052806032815260200161266b603291396001600160a01b038816919061241c565b9050600081806020019051602081101561210857600080fd5b50516001600160e01b031916630a85bd0160e11b1492505050949350505050565b60009081526001919091016020526040902054151590565b6001600160a01b03821661219c576040805162461bcd60e51b815260206004820181905260248201527f4552433732313a206d696e7420746f20746865207a65726f2061646472657373604482015290519081900360640190fd5b6121a581611971565b156121f7576040805162461bcd60e51b815260206004820152601c60248201527f4552433732313a20746f6b656e20616c7265616479206d696e74656400000000604482015290519081900360640190fd5b61220360008383610b08565b6001600160a01b03821660009081526001602052604090206122259082611df6565b5061223260028284611e02565b5060405181906001600160a01b038416906000907fddf252ad1be2c89b69c2b068fc378daa952ba7f163c4a11628f55a4df523b3ef908290a45050565b6000818152600183016020526040812054801561232b57835460001980830191908101906000908790839081106122a257fe5b90600052602060002001549050808760000184815481106122bf57fe5b6000918252602080832090910192909255828152600189810190925260409020908401905586548790806122ef57fe5b60019003818190600052602060002001600090559055866001016000878152602001908152602001600020600090556001945050505050610d50565b6000915050610d50565b60006123418383612129565b61237757508154600181810184556000848152602080822090930184905584548482528286019093526040902091909155610d50565b506000610d50565b6000828152600184016020526040812054806123e4575050604080518082018252838152602080820184815286546001818101895560008981528481209551600290930290950191825591519082015586548684528188019092529290912055611c54565b828560000160018303815481106123f757fe5b9060005260206000209060020201600101819055506000915050611c54565b3b151590565b6060611c5184846000858561243085612416565b612481576040805162461bcd60e51b815260206004820152601d60248201527f416464726573733a2063616c6c20746f206e6f6e2d636f6e7472616374000000604482015290519081900360640190fd5b600080866001600160a01b031685876040518082805190602001908083835b602083106124bf5780518252601f1990920191602091820191016124a0565b6001836020036101000a03801982511681845116808217855250505050505090500191505060006040518083038185875af1925050503d8060008114612521576040519150601f19603f3d011682016040523d82523d6000602084013e612526565b606091505b5091509150612536828286612541565b979650505050505050565b60608315612550575081611c54565b8251156125605782518084602001fd5b60405162461bcd60e51b8152602060048201818152845160248401528451859391928392604401919085019080838360008315611f57578181015183820152602001611f3f565b828054600181600116156101000203166002900490600052602060002090601f0160209004810192826125dd5760008555612623565b82601f106125f657805160ff1916838001178555612623565b82800160010185558215612623579182015b82811115612623578251825591602001919060010190612608565b5061262f929150612633565b5090565b5b8082111561262f576000815560010161263456fe456e756d657261626c655365743a20696e646578206f7574206f6620626f756e64734552433732313a207472616e7366657220746f206e6f6e20455243373231526563656976657220696d706c656d656e7465724f776e61626c653a206e6577206f776e657220697320746865207a65726f20616464726573734552433732313a207472616e7366657220746f20746865207a65726f20616464726573734552433732313a206f70657261746f7220717565727920666f72206e6f6e6578697374656e7420746f6b656e5468697320746f6b656e2068617320616c7265616479206265656e206d696e7465644552433732313a20617070726f76652063616c6c6572206973206e6f74206f776e6572206e6f7220617070726f76656420666f7220616c6c4552433732313a2062616c616e636520717565727920666f7220746865207a65726f20616464726573734552433732313a206f776e657220717565727920666f72206e6f6e6578697374656e7420746f6b656e456e756d657261626c654d61703a20696e646578206f7574206f6620626f756e64734552433732313a20617070726f76656420717565727920666f72206e6f6e6578697374656e7420746f6b656e4f776e61626c653a2063616c6c6572206973206e6f7420746865206f776e65724552433732313a207472616e73666572206f6620746f6b656e2074686174206973206e6f74206f776e4552433732314d657461646174613a2055524920717565727920666f72206e6f6e6578697374656e7420746f6b656e4552433732313a20617070726f76616c20746f2063757272656e74206f776e65724552433732313a207472616e736665722063616c6c6572206973206e6f74206f776e6572206e6f7220617070726f766564a264697066735822122099309ef538bc67c739d9109ce8555ab5592d691d2b78c5d111e4316d2890215d64736f6c63430007060033",
  "immutableReferences": {},
  "source": "// SPDX-License-Identifier: MIT\n\npragma solidity ^0.7.0;\n\n// @title: This Shard Does Not Exist\n// @author: Jonathan Howard\n\n/////////////////////////////////////////////////////////////////////////////\n//                                                                         //\n//                                                                         //\n//   //\n//   //\n//   //\n//   //\n//   //\n//   //\n//                                                                         //\n//             //\n//             //\n//             //\n//             //\n//             //\n//             //\n//                                                                         //\n//                                     //\n//                                     //\n//                                     //\n//                                     //\n//                                     //\n//                                     //\n//                                                                         //\n//                                                                         //\n/////////////////////////////////////////////////////////////////////////////\n\n// OpenZeppelin\nimport \"./token/ERC721/ERC721.sol\";\nimport \"./access/Ownable.sol\";\nimport \"./security/ReentrancyGuard.sol\";\nimport \"./introspection/ERC165.sol\";\nimport \"./utils/Strings.sol\";\nimport \"./utils/IERC2981.sol\";\nimport \"./access/Ownable.sol\";\n\ninterface FntnInterface {\n  function ownerOf(uint256 tokenId) external view returns (address owner);\n}\n\ncontract ThisShardDoesNotExist is IERC2981, ERC721, Ownable, ReentrancyGuard {\n  using SafeMath for uint8;\n  using SafeMath for uint256;\n  using Strings for string;\n\n  // Max NFTs total\n  uint public constant MAX_TOKENS = 666;\n\n  // Price in gwei per shard (0.069 ETH)\n  uint public constant SHARD_PRICE = 69000000000000000;\n\n  // Allow for starting/pausing sale\n  bool public hasSaleStarted = false;\n\n  // Next tokenId eligible to be minted\n  // First 175 are reserved for shard-hodlers\n  uint internal nextTokenId = 176;\n\n  //FNTN Contract\n  address public fntnAddress = 0x2Fb704d243cFA179fFaD4D87AcB1D36bcf243a44;\n  FntnInterface fntnContract = FntnInterface(fntnAddress);\n\n\t// Royalty, in basis points\n\tuint8 internal royaltyBPS = 100;\n\n  // ERC2891 royalty function, for ERC2891-compatible platforms. See IERC2891\n\tfunction royaltyInfo(uint256, uint256 _salePrice) override external view returns (\n      address receiver, uint256 royaltyAmount) {\n\t\treturn (owner(), (_salePrice * royaltyBPS) / 10_000);\n\t}\n\n  // Update it need be, but no ability to rug\n\tfunction updateRoyaltyBPS(uint8 newRoyaltyBPS) public onlyOwner {\n\t\trequire(royaltyBPS <= 300, \"No greater 30%\");\n\t\troyaltyBPS = newRoyaltyBPS;\n\t}\n\n  /*\n   * Set up the basics\n   *\n   * @dev It will NOT be ready to start sale immediately upon deploy\n   */\n  constructor(string memory baseURI) ERC721(\"This Shard Does Not Exist\",\"AIFNTN\") {\n    setBaseURI(baseURI);\n  }\n\n  /*\n   * Get the tokens owned by _owner\n   */\n  function tokensOfOwner(address _owner) external view returns(uint256[] memory ) {\n    uint256 tokenCount = balanceOf(_owner);\n    if (tokenCount == 0) {\n      // Return an empty array\n      return new uint256[](0);\n    } else {\n      uint256[] memory result = new uint256[](tokenCount);\n      uint256 index;\n      for (index = 0; index < tokenCount; index++) {\n        result[index] = tokenOfOwnerByIndex(_owner, index);\n      }\n      return result;\n    }\n  }\n\n  /*\n   * Main function for the sale\n   *\n   * prerequisites\n   *  - not at max supply\n   *  - sale has started\n   */\n  function mint() external payable nonReentrant {\n    require(nextTokenId <= MAX_TOKENS, \"We are at max supply\");\n    require(hasSaleStarted, \"Sale hasn't started\");\n    require(msg.value == SHARD_PRICE, \"Ether value required is 0.069\");\n\n    _safeMint(msg.sender, nextTokenId++);\n  }\n\n  /*\n   * Buy the token reserved for your shard\n   *\n   * Prerequisites:\n   *  - not at max supply\n   *  - sale has started\n   *  - your wallet owns the shard ID in question\n   *\n   * Example input: To mint for FNTN // 137, you would not input\n   * 137, but the tokenId in its shared contract. If you don't know this\n   * ID, your best bet is the website. But it will also be after the final '/'\n   * in the URL of your shard on OpenSea, eg https://opensea.io/0xetcetcetc/shardId\n   */\n  function mintWithShard(uint shardId) external payable nonReentrant {\n    require(hasSaleStarted, \"Sale hasn't started\");\n    require(msg.value == SHARD_PRICE, \"Ether value required is 0.069\");\n    // Duplicate this here to potentially save people gas\n    require(shardId >= 1229 && shardId <= 1420, \"Enter a sharId from 1229 to 1420\");\n\n    // Ensure sender owns shard in question\n    require(fntnContract.ownerOf(shardId) == msg.sender, \"Not the owner of this shard\");\n\n    // Mint if token doesn't exist\n    require(!_exists(shardId), \"This token has already been minted\");\n    _safeMint(msg.sender, shardId);\n  }\n\n  // TODO: selector for 2981\n\t// Handy while calculating XOR of all function selectors\n\tfunction calculateSelector() public pure returns (bytes4) {\n\t\treturn type(IERC2981).interfaceId;\n\t}\n\n  /**\n   * @dev See {IERC165-supportsInterface}.\n   */\n  function supportsInterface(bytes4 interfaceId) public view override(ERC165) returns (bool) {\n    return ERC165.supportsInterface(interfaceId);\n  }\n\n  /**\n   * @dev See {IERC721Metadata-tokenURI}.\n   */\n  function tokenURI(uint256 tokenId) public view virtual override returns (string memory) {\n    require(_exists(tokenId), \"ERC721Metadata: URI query for nonexistent token\");\n\n    return string(abi.encodePacked(\n\t\t\tbaseURI(),\n\t\t\tStrings.toString(tokenId),\n\t\t\t\"/index.json\"\n\t\t));\n  }\n    \n\n  // Admin functions\n  function setBaseURI(string memory baseURI) public onlyOwner {\n    _setBaseURI(baseURI);\n  }\n\n  function getNextPublicTokenId() public view returns(uint) {\n    return nextTokenId;\n  }\n\n  function startSale() public onlyOwner {\n    hasSaleStarted = true;\n  }\n\n  function pauseSale() public onlyOwner {\n    hasSaleStarted = false;\n  }\n\n  function withdrawAll() public payable onlyOwner {\n    require(payable(msg.sender).send(address(this).balance));\n  }\n}\n",
  "sourcePath": "/Users/jon/Code/shl0ms-ai-shards/contracts/ThisShardDoesNotExist.sol",
  "compiler": {
    "name": "solc",
    "version": "0.7.6+commit.7338295f.Emscripten.clang"
  },
  "schemaVersion": "3.3.4",
  "updatedAt": "2021-09-06T03:26:03.840Z",
  "networkType": "ethereum",
  "devdoc": {
    "kind": "dev",
    "methods": {
      "approve(address,uint256)": {
        "details": "See {IERC721-approve}."
      },
      "balanceOf(address)": {
        "details": "See {IERC721-balanceOf}."
      },
      "baseURI()": {
        "details": "Returns the base URI set via {_setBaseURI}. This will be automatically added as a prefix in {tokenURI} to each token's URI, or to the token ID if no specific URI is set for that token ID."
      },
      "getApproved(uint256)": {
        "details": "See {IERC721-getApproved}."
      },
      "isApprovedForAll(address,address)": {
        "details": "See {IERC721-isApprovedForAll}."
      },
      "name()": {
        "details": "See {IERC721Metadata-name}."
      },
      "owner()": {
        "details": "Returns the address of the current owner."
      },
      "ownerOf(uint256)": {
        "details": "See {IERC721-ownerOf}."
      },
      "renounceOwnership()": {
        "details": "Leaves the contract without owner. It will not be possible to call `onlyOwner` functions anymore. Can only be called by the current owner. NOTE: Renouncing ownership will leave the contract without an owner, thereby removing any functionality that is only available to the owner."
      },
      "safeTransferFrom(address,address,uint256)": {
        "details": "See {IERC721-safeTransferFrom}."
      },
      "safeTransferFrom(address,address,uint256,bytes)": {
        "details": "See {IERC721-safeTransferFrom}."
      },
      "setApprovalForAll(address,bool)": {
        "details": "See {IERC721-setApprovalForAll}."
      },
      "supportsInterface(bytes4)": {
        "details": "See {IERC165-supportsInterface}."
      },
      "symbol()": {
        "details": "See {IERC721Metadata-symbol}."
      },
      "tokenByIndex(uint256)": {
        "details": "See {IERC721Enumerable-tokenByIndex}."
      },
      "tokenOfOwnerByIndex(address,uint256)": {
        "details": "See {IERC721Enumerable-tokenOfOwnerByIndex}."
      },
      "tokenURI(uint256)": {
        "details": "See {IERC721Metadata-tokenURI}."
      },
      "totalSupply()": {
        "details": "See {IERC721Enumerable-totalSupply}."
      },
      "transferFrom(address,address,uint256)": {
        "details": "See {IERC721-transferFrom}."
      },
      "transferOwnership(address)": {
        "details": "Transfers ownership of the contract to a new account (`newOwner`). Can only be called by the current owner."
      }
    },
    "version": 1
  },
  "userdoc": {
    "kind": "user",
    "methods": {},
    "version": 1
  }
}