{
  "contractName": "ThisShardDoesNotExist",
  "abi": [
    {
      "inputs": [
        {
          "internalType": "string",
          "name": "baseURI",
          "type": "string"
        }
      ],
      "stateMutability": "nonpayable",
      "type": "constructor"
    },
    {
      "anonymous": false,
      "inputs": [
        {
          "indexed": true,
          "internalType": "address",
          "name": "owner",
          "type": "address"
        },
        {
          "indexed": true,
          "internalType": "address",
          "name": "approved",
          "type": "address"
        },
        {
          "indexed": true,
          "internalType": "uint256",
          "name": "tokenId",
          "type": "uint256"
        }
      ],
      "name": "Approval",
      "type": "event"
    },
    {
      "anonymous": false,
      "inputs": [
        {
          "indexed": true,
          "internalType": "address",
          "name": "owner",
          "type": "address"
        },
        {
          "indexed": true,
          "internalType": "address",
          "name": "operator",
          "type": "address"
        },
        {
          "indexed": false,
          "internalType": "bool",
          "name": "approved",
          "type": "bool"
        }
      ],
      "name": "ApprovalForAll",
      "type": "event"
    },
    {
      "anonymous": false,
      "inputs": [
        {
          "indexed": true,
          "internalType": "address",
          "name": "previousOwner",
          "type": "address"
        },
        {
          "indexed": true,
          "internalType": "address",
          "name": "newOwner",
          "type": "address"
        }
      ],
      "name": "OwnershipTransferred",
      "type": "event"
    },
    {
      "anonymous": false,
      "inputs": [
        {
          "indexed": true,
          "internalType": "address",
          "name": "from",
          "type": "address"
        },
        {
          "indexed": true,
          "internalType": "address",
          "name": "to",
          "type": "address"
        },
        {
          "indexed": true,
          "internalType": "uint256",
          "name": "tokenId",
          "type": "uint256"
        }
      ],
      "name": "Transfer",
      "type": "event"
    },
    {
      "inputs": [],
      "name": "MAX_TOKENS",
      "outputs": [
        {
          "internalType": "uint256",
          "name": "",
          "type": "uint256"
        }
      ],
      "stateMutability": "view",
      "type": "function",
      "constant": true
    },
    {
      "inputs": [],
      "name": "SHARD_PRICE",
      "outputs": [
        {
          "internalType": "uint256",
          "name": "",
          "type": "uint256"
        }
      ],
      "stateMutability": "view",
      "type": "function",
      "constant": true
    },
    {
      "inputs": [
        {
          "internalType": "address",
          "name": "to",
          "type": "address"
        },
        {
          "internalType": "uint256",
          "name": "tokenId",
          "type": "uint256"
        }
      ],
      "name": "approve",
      "outputs": [],
      "stateMutability": "nonpayable",
      "type": "function"
    },
    {
      "inputs": [
        {
          "internalType": "address",
          "name": "owner",
          "type": "address"
        }
      ],
      "name": "balanceOf",
      "outputs": [
        {
          "internalType": "uint256",
          "name": "",
          "type": "uint256"
        }
      ],
      "stateMutability": "view",
      "type": "function",
      "constant": true
    },
    {
      "inputs": [],
      "name": "baseURI",
      "outputs": [
        {
          "internalType": "string",
          "name": "",
          "type": "string"
        }
      ],
      "stateMutability": "view",
      "type": "function",
      "constant": true
    },
    {
      "inputs": [],
      "name": "fntnAddress",
      "outputs": [
        {
          "internalType": "address",
          "name": "",
          "type": "address"
        }
      ],
      "stateMutability": "view",
      "type": "function",
      "constant": true
    },
    {
      "inputs": [
        {
          "internalType": "uint256",
          "name": "tokenId",
          "type": "uint256"
        }
      ],
      "name": "getApproved",
      "outputs": [
        {
          "internalType": "address",
          "name": "",
          "type": "address"
        }
      ],
      "stateMutability": "view",
      "type": "function",
      "constant": true
    },
    {
      "inputs": [],
      "name": "hasSaleStarted",
      "outputs": [
        {
          "internalType": "bool",
          "name": "",
          "type": "bool"
        }
      ],
      "stateMutability": "view",
      "type": "function",
      "constant": true
    },
    {
      "inputs": [
        {
          "internalType": "address",
          "name": "owner",
          "type": "address"
        },
        {
          "internalType": "address",
          "name": "operator",
          "type": "address"
        }
      ],
      "name": "isApprovedForAll",
      "outputs": [
        {
          "internalType": "bool",
          "name": "",
          "type": "bool"
        }
      ],
      "stateMutability": "view",
      "type": "function",
      "constant": true
    },
    {
      "inputs": [],
      "name": "name",
      "outputs": [
        {
          "internalType": "string",
          "name": "",
          "type": "string"
        }
      ],
      "stateMutability": "view",
      "type": "function",
      "constant": true
    },
    {
      "inputs": [],
      "name": "owner",
      "outputs": [
        {
          "internalType": "address",
          "name": "",
          "type": "address"
        }
      ],
      "stateMutability": "view",
      "type": "function",
      "constant": true
    },
    {
      "inputs": [
        {
          "internalType": "uint256",
          "name": "tokenId",
          "type": "uint256"
        }
      ],
      "name": "ownerOf",
      "outputs": [
        {
          "internalType": "address",
          "name": "",
          "type": "address"
        }
      ],
      "stateMutability": "view",
      "type": "function",
      "constant": true
    },
    {
      "inputs": [],
      "name": "renounceOwnership",
      "outputs": [],
      "stateMutability": "nonpayable",
      "type": "function"
    },
    {
      "inputs": [
        {
          "internalType": "address",
          "name": "from",
          "type": "address"
        },
        {
          "internalType": "address",
          "name": "to",
          "type": "address"
        },
        {
          "internalType": "uint256",
          "name": "tokenId",
          "type": "uint256"
        }
      ],
      "name": "safeTransferFrom",
      "outputs": [],
      "stateMutability": "nonpayable",
      "type": "function"
    },
    {
      "inputs": [
        {
          "internalType": "address",
          "name": "from",
          "type": "address"
        },
        {
          "internalType": "address",
          "name": "to",
          "type": "address"
        },
        {
          "internalType": "uint256",
          "name": "tokenId",
          "type": "uint256"
        },
        {
          "internalType": "bytes",
          "name": "_data",
          "type": "bytes"
        }
      ],
      "name": "safeTransferFrom",
      "outputs": [],
      "stateMutability": "nonpayable",
      "type": "function"
    },
    {
      "inputs": [
        {
          "internalType": "address",
          "name": "operator",
          "type": "address"
        },
        {
          "internalType": "bool",
          "name": "approved",
          "type": "bool"
        }
      ],
      "name": "setApprovalForAll",
      "outputs": [],
      "stateMutability": "nonpayable",
      "type": "function"
    },
    {
      "inputs": [
        {
          "internalType": "uint256",
          "name": "shardId",
          "type": "uint256"
        }
      ],
      "name": "shardIdToTokenId",
      "outputs": [
        {
          "internalType": "uint256",
          "name": "",
          "type": "uint256"
        }
      ],
      "stateMutability": "pure",
      "type": "function",
      "constant": true
    },
    {
      "inputs": [],
      "name": "symbol",
      "outputs": [
        {
          "internalType": "string",
          "name": "",
          "type": "string"
        }
      ],
      "stateMutability": "view",
      "type": "function",
      "constant": true
    },
    {
      "inputs": [
        {
          "internalType": "uint256",
          "name": "index",
          "type": "uint256"
        }
      ],
      "name": "tokenByIndex",
      "outputs": [
        {
          "internalType": "uint256",
          "name": "",
          "type": "uint256"
        }
      ],
      "stateMutability": "view",
      "type": "function",
      "constant": true
    },
    {
      "inputs": [
        {
          "internalType": "uint256",
          "name": "tokenId",
          "type": "uint256"
        }
      ],
      "name": "tokenIdToShardId",
      "outputs": [
        {
          "internalType": "uint256",
          "name": "",
          "type": "uint256"
        }
      ],
      "stateMutability": "pure",
      "type": "function",
      "constant": true
    },
    {
      "inputs": [
        {
          "internalType": "address",
          "name": "owner",
          "type": "address"
        },
        {
          "internalType": "uint256",
          "name": "index",
          "type": "uint256"
        }
      ],
      "name": "tokenOfOwnerByIndex",
      "outputs": [
        {
          "internalType": "uint256",
          "name": "",
          "type": "uint256"
        }
      ],
      "stateMutability": "view",
      "type": "function",
      "constant": true
    },
    {
      "inputs": [],
      "name": "totalSupply",
      "outputs": [
        {
          "internalType": "uint256",
          "name": "",
          "type": "uint256"
        }
      ],
      "stateMutability": "view",
      "type": "function",
      "constant": true
    },
    {
      "inputs": [
        {
          "internalType": "address",
          "name": "from",
          "type": "address"
        },
        {
          "internalType": "address",
          "name": "to",
          "type": "address"
        },
        {
          "internalType": "uint256",
          "name": "tokenId",
          "type": "uint256"
        }
      ],
      "name": "transferFrom",
      "outputs": [],
      "stateMutability": "nonpayable",
      "type": "function"
    },
    {
      "inputs": [
        {
          "internalType": "address",
          "name": "newOwner",
          "type": "address"
        }
      ],
      "name": "transferOwnership",
      "outputs": [],
      "stateMutability": "nonpayable",
      "type": "function"
    },
    {
      "inputs": [
        {
          "internalType": "uint256",
          "name": "",
          "type": "uint256"
        },
        {
          "internalType": "uint256",
          "name": "_salePrice",
          "type": "uint256"
        }
      ],
      "name": "royaltyInfo",
      "outputs": [
        {
          "internalType": "address",
          "name": "receiver",
          "type": "address"
        },
        {
          "internalType": "uint256",
          "name": "royaltyAmount",
          "type": "uint256"
        }
      ],
      "stateMutability": "view",
      "type": "function",
      "constant": true
    },
    {
      "inputs": [
        {
          "internalType": "uint8",
          "name": "newRoyaltyBPS",
          "type": "uint8"
        }
      ],
      "name": "updateRoyaltyBPS",
      "outputs": [],
      "stateMutability": "nonpayable",
      "type": "function"
    },
    {
      "inputs": [
        {
          "internalType": "address",
          "name": "_owner",
          "type": "address"
        }
      ],
      "name": "tokensOfOwner",
      "outputs": [
        {
          "internalType": "uint256[]",
          "name": "",
          "type": "uint256[]"
        }
      ],
      "stateMutability": "view",
      "type": "function",
      "constant": true
    },
    {
      "inputs": [],
      "name": "mint",
      "outputs": [],
      "stateMutability": "payable",
      "type": "function",
      "payable": true
    },
    {
      "inputs": [
        {
          "internalType": "uint256",
          "name": "tokenId",
          "type": "uint256"
        }
      ],
      "name": "mintWithShard",
      "outputs": [],
      "stateMutability": "payable",
      "type": "function",
      "payable": true
    },
    {
      "inputs": [],
      "name": "calculateSelector",
      "outputs": [
        {
          "internalType": "bytes4",
          "name": "",
          "type": "bytes4"
        }
      ],
      "stateMutability": "pure",
      "type": "function",
      "constant": true
    },
    {
      "inputs": [
        {
          "internalType": "bytes4",
          "name": "interfaceId",
          "type": "bytes4"
        }
      ],
      "name": "supportsInterface",
      "outputs": [
        {
          "internalType": "bool",
          "name": "",
          "type": "bool"
        }
      ],
      "stateMutability": "view",
      "type": "function",
      "constant": true
    },
    {
      "inputs": [
        {
          "internalType": "uint256",
          "name": "tokenId",
          "type": "uint256"
        }
      ],
      "name": "tokenURI",
      "outputs": [
        {
          "internalType": "string",
          "name": "",
          "type": "string"
        }
      ],
      "stateMutability": "view",
      "type": "function",
      "constant": true
    },
    {
      "inputs": [
        {
          "internalType": "address",
          "name": "contractAddress",
          "type": "address"
        }
      ],
      "name": "setFntnContract",
      "outputs": [],
      "stateMutability": "nonpayable",
      "type": "function"
    },
    {
      "inputs": [
        {
          "internalType": "string",
          "name": "baseURI",
          "type": "string"
        }
      ],
      "name": "setBaseURI",
      "outputs": [],
      "stateMutability": "nonpayable",
      "type": "function"
    },
    {
      "inputs": [],
      "name": "getNextPublicTokenId",
      "outputs": [
        {
          "internalType": "uint256",
          "name": "",
          "type": "uint256"
        }
      ],
      "stateMutability": "view",
      "type": "function",
      "constant": true
    },
    {
      "inputs": [],
      "name": "startSale",
      "outputs": [],
      "stateMutability": "nonpayable",
      "type": "function"
    },
    {
      "inputs": [],
      "name": "pauseSale",
      "outputs": [],
      "stateMutability": "nonpayable",
      "type": "function"
    },
    {
      "inputs": [],
      "name": "withdrawAll",
      "outputs": [],
      "stateMutability": "payable",
      "type": "function",
      "payable": true
    }
  ],
  "bytecode": "0x6080604052600c805460ff1916905560b0600d55600e8054732fb704d243cfa179ffad4d87acb1d36bcf243a446001600160a01b03199182161791829055600f80546001600160a01b03909316929091169190911760ff60a01b1916601960a21b1790553480156200007057600080fd5b50604051620032b1380380620032b1833981810160405260208110156200009657600080fd5b8101908080516040519392919084640100000000821115620000b757600080fd5b908301906020820185811115620000cd57600080fd5b8251640100000000811182820188101715620000e857600080fd5b82525081516020918201929091019080838360005b8381101562000117578181015183820152602001620000fd565b50505050905090810190601f168015620001455780820380516001836020036101000a031916815260200191505b5060408181018152601982527f5468697320536861726420446f6573204e6f74204578697374000000000000006020808401919091528151808301909252600682526520a4a3272a2760d11b908201529093509150620001ae90506301ffc9a760e01b62000284565b8151620001c3906006906020850190620003bc565b508051620001d9906007906020840190620003bc565b50620001ec6380ac58cd60e01b62000284565b620001fe635b5e139f60e01b62000284565b6200021063780e9d6360e01b62000284565b50600090506200021f62000309565b600a80546001600160a01b0319166001600160a01b038316908117909155604051919250906000907f8be0079c531659141344cd1fd0a4f28419497f9722a3daafe3b4186f6b6457e0908290a3506001600b556200027d816200030d565b5062000468565b6001600160e01b03198082161415620002e4576040805162461bcd60e51b815260206004820152601c60248201527f4552433136353a20696e76616c696420696e7465726661636520696400000000604482015290519081900360640190fd5b6001600160e01b0319166000908152602081905260409020805460ff19166001179055565b3390565b6200031762000309565b6001600160a01b03166200032a62000394565b6001600160a01b03161462000386576040805162461bcd60e51b815260206004820181905260248201527f4f776e61626c653a2063616c6c6572206973206e6f7420746865206f776e6572604482015290519081900360640190fd5b6200039181620003a3565b50565b600a546001600160a01b031690565b8051620003b8906009906020840190620003bc565b5050565b828054600181600116156101000203166002900490600052602060002090601f016020900481019282620003f457600085556200043f565b82601f106200040f57805160ff19168380011785556200043f565b828001600101855582156200043f579182015b828111156200043f57825182559160200191906001019062000422565b506200044d92915062000451565b5090565b5b808211156200044d576000815560010162000452565b612e3980620004786000396000f3fe6080604052600436106102055760003560e01c806370a0823111610113578063a864e86b116100ab578063c87b56dd1161006f578063c87b56dd14610915578063e985e9c51461093f578063eef5deb11461097a578063f2fde38b146109a7578063f47c84c5146109da57610205565b8063a864e86b146107b6578063b66a0e5d146107d3578063b88d4fde146107e8578063bb71eb3b146108b9578063c8631b7b146108eb57610205565b806370a082311461063f578063715018a61461067257806373bde577146106875780637feac7771461069c5780638462151c146106c6578063853828b6146107495780638da5cb5b1461075157806395d89b4114610766578063a22cb4651461077b57610205565b806327fa3f24116101a15780634f6ccce7116101655780634f6ccce71461051057806355367ba91461053a57806355f804b31461054f5780636352211e146106005780636c0360eb1461062a57610205565b806327fa3f24146103f95780632a55205a1461040e5780632f745c591461046157806342842e0e1461049a57806349caf4dd146104dd57610205565b806301ffc9a71461020a57806306fdde0314610252578063081812fc146102dc578063095ea7b3146103225780631249c58b1461035d57806318160ddd146103655780631c8b232d1461038c57806323b872dd146103a157806326e7fef3146103e4575b600080fd5b34801561021657600080fd5b5061023e6004803603602081101561022d57600080fd5b50356001600160e01b0319166109ef565b604080519115158252519081900360200190f35b34801561025e57600080fd5b50610267610a02565b6040805160208082528351818301528351919283929083019185019080838360005b838110156102a1578181015183820152602001610289565b50505050905090810190601f1680156102ce5780820380516001836020036101000a031916815260200191505b509250505060405180910390f35b3480156102e857600080fd5b50610306600480360360208110156102ff57600080fd5b5035610a98565b604080516001600160a01b039092168252519081900360200190f35b34801561032e57600080fd5b5061035b6004803603604081101561034557600080fd5b506001600160a01b038135169060200135610afa565b005b61035b610bd5565b34801561037157600080fd5b5061037a610d47565b60408051918252519081900360200190f35b34801561039857600080fd5b5061023e610d58565b3480156103ad57600080fd5b5061035b600480360360608110156103c457600080fd5b506001600160a01b03813581169160208101359091169060400135610d61565b3480156103f057600080fd5b5061037a610db8565b34801561040557600080fd5b5061037a610dbe565b34801561041a57600080fd5b5061043e6004803603604081101561043157600080fd5b5080359060200135610dc9565b604080516001600160a01b03909316835260208301919091528051918290030190f35b34801561046d57600080fd5b5061037a6004803603604081101561048457600080fd5b506001600160a01b038135169060200135610df3565b3480156104a657600080fd5b5061035b600480360360608110156104bd57600080fd5b506001600160a01b03813581169160208101359091169060400135610e1e565b3480156104e957600080fd5b5061035b6004803603602081101561050057600080fd5b50356001600160a01b0316610e39565b34801561051c57600080fd5b5061037a6004803603602081101561053357600080fd5b5035610ebd565b34801561054657600080fd5b5061035b610ed3565b34801561055b57600080fd5b5061035b6004803603602081101561057257600080fd5b810190602081018135600160201b81111561058c57600080fd5b82018360208201111561059e57600080fd5b803590602001918460018302840111600160201b831117156105bf57600080fd5b91908080601f016020809104026020016040519081016040528093929190818152602001838380828437600092019190915250929550610f41945050505050565b34801561060c57600080fd5b506103066004803603602081101561062357600080fd5b5035610faf565b34801561063657600080fd5b50610267610fd7565b34801561064b57600080fd5b5061037a6004803603602081101561066257600080fd5b50356001600160a01b0316611038565b34801561067e57600080fd5b5061035b6110a0565b34801561069357600080fd5b5061030661114c565b3480156106a857600080fd5b5061037a600480360360208110156106bf57600080fd5b503561115b565b3480156106d257600080fd5b506106f9600480360360208110156106e957600080fd5b50356001600160a01b0316611333565b60408051602080825283518183015283519192839290830191858101910280838360005b8381101561073557818101518382015260200161071d565b505050509050019250505060405180910390f35b61035b6113e1565b34801561075d57600080fd5b50610306611469565b34801561077257600080fd5b50610267611478565b34801561078757600080fd5b5061035b6004803603604081101561079e57600080fd5b506001600160a01b03813516906020013515156114d9565b61035b600480360360208110156107cc57600080fd5b50356115da565b3480156107df57600080fd5b5061035b61187b565b3480156107f457600080fd5b5061035b6004803603608081101561080b57600080fd5b6001600160a01b03823581169260208101359091169160408201359190810190608081016060820135600160201b81111561084557600080fd5b82018360208201111561085757600080fd5b803590602001918460018302840111600160201b8311171561087857600080fd5b91908080601f0160208091040260200160405190810160405280939291908181526020018383808284376000920191909152509295506118ec945050505050565b3480156108c557600080fd5b506108ce61194a565b604080516001600160e01b03199092168252519081900360200190f35b3480156108f757600080fd5b5061037a6004803603602081101561090e57600080fd5b5035611955565b34801561092157600080fd5b506102676004803603602081101561093857600080fd5b5035611b29565b34801561094b57600080fd5b5061023e6004803603604081101561096257600080fd5b506001600160a01b0381358116916020013516611c4a565b34801561098657600080fd5b5061035b6004803603602081101561099d57600080fd5b503560ff16611c78565b3480156109b357600080fd5b5061035b600480360360208110156109ca57600080fd5b50356001600160a01b0316611d54565b3480156109e657600080fd5b5061037a611e57565b60006109fa82611e5d565b90505b919050565b60068054604080516020601f6002600019610100600188161502019095169490940493840181900481028201810190925282815260609390929091830182828015610a8e5780601f10610a6357610100808354040283529160200191610a8e565b820191906000526020600020905b815481529060010190602001808311610a7157829003601f168201915b5050505050905090565b6000610aa382611e7c565b610ade5760405162461bcd60e51b815260040180806020018281038252602c815260200180612ced602c913960400191505060405180910390fd5b506000908152600460205260409020546001600160a01b031690565b6000610b0582610faf565b9050806001600160a01b0316836001600160a01b03161415610b585760405162461bcd60e51b8152600401808060200182810382526021815260200180612d916021913960400191505060405180910390fd5b806001600160a01b0316610b6a611e89565b6001600160a01b03161480610b8b5750610b8b81610b86611e89565b611c4a565b610bc65760405162461bcd60e51b8152600401808060200182810382526038815260200180612c406038913960400191505060405180910390fd5b610bd08383611e8d565b505050565b6002600b541415610c2d576040805162461bcd60e51b815260206004820152601f60248201527f5265656e7472616e637947756172643a207265656e7472616e742063616c6c00604482015290519081900360640190fd5b6002600b55600d5461029a1015610c82576040805162461bcd60e51b8152602060048201526014602482015273576520617265206174206d617820737570706c7960601b604482015290519081900360640190fd5b600c5460ff16610ccf576040805162461bcd60e51b815260206004820152601360248201527214d85b19481a185cdb89dd081cdd185c9d1959606a1b604482015290519081900360640190fd5b66f52322698080003414610d2a576040805162461bcd60e51b815260206004820152601d60248201527f45746865722076616c756520726571756972656420697320302e303639000000604482015290519081900360640190fd5b600d805460018101909155610d40903390611efb565b6001600b55565b6000610d536002611f19565b905090565b600c5460ff1681565b610d72610d6c611e89565b82611f24565b610dad5760405162461bcd60e51b8152600401808060200182810382526031815260200180612dd36031913960400191505060405180910390fd5b610bd0838383611fc8565b600d5490565b66f523226980800081565b600080610dd4611469565b600f5461271090600160a01b900460ff16850204915091509250929050565b6001600160a01b0382166000908152600160205260408120610e159083612114565b90505b92915050565b610bd0838383604051806020016040528060008152506118ec565b610e41611e89565b6001600160a01b0316610e52611469565b6001600160a01b031614610e9b576040805162461bcd60e51b81526020600482018190526024820152600080516020612d19833981519152604482015290519081900360640190fd5b600e80546001600160a01b0319166001600160a01b0392909216919091179055565b600080610ecb600284612120565b509392505050565b610edb611e89565b6001600160a01b0316610eec611469565b6001600160a01b031614610f35576040805162461bcd60e51b81526020600482018190526024820152600080516020612d19833981519152604482015290519081900360640190fd5b600c805460ff19169055565b610f49611e89565b6001600160a01b0316610f5a611469565b6001600160a01b031614610fa3576040805162461bcd60e51b81526020600482018190526024820152600080516020612d19833981519152604482015290519081900360640190fd5b610fac8161213c565b50565b60006109fa82604051806060016040528060298152602001612ca2602991396002919061214f565b60098054604080516020601f6002600019610100600188161502019095169490940493840181900481028201810190925282815260609390929091830182828015610a8e5780601f10610a6357610100808354040283529160200191610a8e565b60006001600160a01b03821661107f5760405162461bcd60e51b815260040180806020018281038252602a815260200180612c78602a913960400191505060405180910390fd5b6001600160a01b03821660009081526001602052604090206109fa90611f19565b6110a8611e89565b6001600160a01b03166110b9611469565b6001600160a01b031614611102576040805162461bcd60e51b81526020600482018190526024820152600080516020612d19833981519152604482015290519081900360640190fd5b600a546040516000916001600160a01b0316907f8be0079c531659141344cd1fd0a4f28419497f9722a3daafe3b4186f6b6457e0908390a3600a80546001600160a01b0319169055565b600e546001600160a01b031681565b60006104cd8210158015611171575061058c8211155b6111ac5760405162461bcd60e51b8152600401808060200182810382526021815260200180612db26021913960400191505060405180910390fd5b6000826104cd14156111c0575060af6109fa565b826104ce14156111d2575060016109fa565b6104cf831180156111e457506104d583105b156111f557506104cc1982016109fa565b6104d58311801561120757506104f383105b1561121857506104cd1982016109fa565b6104f38311801561122a575061050e83105b1561123b57506104ce1982016109fa565b61050d8311801561124d575061051183105b1561125e57506104681982016109fa565b826105121415611270575060a96109fa565b826105131415611282575060aa6109fa565b826105141415611294575060a86109fa565b610514831180156112a6575061051983105b156112b757506104691982016109fa565b610518831180156112c9575061052683105b156112da57506104d91982016109fa565b610527831180156112ec575061054983105b156112fd57506104db1982016109fa565b6105498311801561130f575061058283105b1561132057506104dc1982016109fa565b8261058c14156109fa5750600292915050565b6060600061134083611038565b90508061135d5750506040805160008152602081019091526109fd565b60008167ffffffffffffffff8111801561137657600080fd5b506040519080825280602002602001820160405280156113a0578160200160208202803683370190505b50905060005b828110156113d7576113b88582610df3565b8282815181106113c457fe5b60209081029190910101526001016113a6565b5091506109fd9050565b6113e9611e89565b6001600160a01b03166113fa611469565b6001600160a01b031614611443576040805162461bcd60e51b81526020600482018190526024820152600080516020612d19833981519152604482015290519081900360640190fd5b60405133904780156108fc02916000818181858888f1935050505061146757600080fd5b565b600a546001600160a01b031690565b60078054604080516020601f6002600019610100600188161502019095169490940493840181900481028201810190925282815260609390929091830182828015610a8e5780601f10610a6357610100808354040283529160200191610a8e565b6114e1611e89565b6001600160a01b0316826001600160a01b03161415611543576040805162461bcd60e51b815260206004820152601960248201527822a9219b99189d1030b8383937bb32903a379031b0b63632b960391b604482015290519081900360640190fd5b8060056000611550611e89565b6001600160a01b03908116825260208083019390935260409182016000908120918716808252919093529120805460ff191692151592909217909155611594611e89565b6001600160a01b03167f17307eab39ab6107e8899845ad3d59bd9653f200f220920489ca2b5937696c318360405180821515815260200191505060405180910390a35050565b6002600b541415611632576040805162461bcd60e51b815260206004820152601f60248201527f5265656e7472616e637947756172643a207265656e7472616e742063616c6c00604482015290519081900360640190fd5b6002600b55600c5460ff16611684576040805162461bcd60e51b815260206004820152601360248201527214d85b19481a185cdb89dd081cdd185c9d1959606a1b604482015290519081900360640190fd5b66f523226980800034146116df576040805162461bcd60e51b815260206004820152601d60248201527f45746865722076616c756520726571756972656420697320302e303639000000604482015290519081900360640190fd5b6104cd81101580156116f3575061058c8111155b611744576040805162461bcd60e51b815260206004820181905260248201527f456e7465722061207368617249642066726f6d203132323920746f2031343230604482015290519081900360640190fd5b600f54604080516331a9108f60e11b815260048101849052905133926001600160a01b031691636352211e916024808301926020929190829003018186803b15801561178f57600080fd5b505afa1580156117a3573d6000803e3d6000fd5b505050506040513d60208110156117b957600080fd5b50516001600160a01b031614611816576040805162461bcd60e51b815260206004820152601b60248201527f4e6f7420746865206f776e6572206f6620746869732073686172640000000000604482015290519081900360640190fd5b60006118218261115b565b905061182c81611e7c565b156118685760405162461bcd60e51b8152600401808060200182810382526022815260200180612c1e6022913960400191505060405180910390fd5b6118723382611efb565b50506001600b55565b611883611e89565b6001600160a01b0316611894611469565b6001600160a01b0316146118dd576040805162461bcd60e51b81526020600482018190526024820152600080516020612d19833981519152604482015290519081900360640190fd5b600c805460ff19166001179055565b6118fd6118f7611e89565b83611f24565b6119385760405162461bcd60e51b8152600401808060200182810382526031815260200180612dd36031913960400191505060405180910390fd5b61194484848484612166565b50505050565b63152a902d60e11b90565b600060018210158015611969575060af8211155b6119ba576040805162461bcd60e51b815260206004820152601d60248201527f456e746572206120736861726449642066726f6d203120746f20313735000000604482015290519081900360640190fd5b600082600114156119ce57506104ce6109fa565b82600214156119e0575061058c6109fa565b6002831180156119f05750600883105b15611a0057506104cd82016109fa565b600783118015611a105750602583105b15611a2057506104ce82016109fa565b602483118015611a305750603f83105b15611a4057506104cf82016109fa565b603e83118015611a505750604c83105b15611a6057506104da82016109fa565b604b83118015611a705750606d83105b15611a8057506104dc82016109fa565b606c83118015611a90575060a583105b15611aa057506104dd82016109fa565b60a483118015611ab0575060a883105b15611ac0575061046982016109fa565b8260a81415611ad257506105146109fa565b8260a91415611ae457506105126109fa565b8260aa1415611af657506105136109fa565b60aa83118015611b06575060af83105b15611b16575061046a82016109fa565b8260af14156109fa57506104cd92915050565b6060611b3482611e7c565b611b6f5760405162461bcd60e51b815260040180806020018281038252602f815260200180612d62602f913960400191505060405180910390fd5b611b77610fd7565b611b80836121b8565b6040516020018083805190602001908083835b60208310611bb25780518252601f199092019160209182019101611b93565b51815160209384036101000a600019018019909216911617905285519190930192850191508083835b60208310611bfa5780518252601f199092019160209182019101611bdb565b5181516020939093036101000a60001901801990911692169190911790526a17b4b73232bc173539b7b760a91b92019182525060408051808303601419018152600b909201905295945050505050565b6001600160a01b03918216600090815260056020908152604080832093909416825291909152205460ff1690565b611c80611e89565b6001600160a01b0316611c91611469565b6001600160a01b031614611cda576040805162461bcd60e51b81526020600482018190526024820152600080516020612d19833981519152604482015290519081900360640190fd5b600f5461012c600160a01b90910460ff161115611d34576040805162461bcd60e51b81526020600482015260136024820152724e6f2067726561746572207468616e2033302560681b604482015290519081900360640190fd5b600f805460ff909216600160a01b0260ff60a01b19909216919091179055565b611d5c611e89565b6001600160a01b0316611d6d611469565b6001600160a01b031614611db6576040805162461bcd60e51b81526020600482018190526024820152600080516020612d19833981519152604482015290519081900360640190fd5b6001600160a01b038116611dfb5760405162461bcd60e51b8152600401808060200182810382526026815260200180612ba86026913960400191505060405180910390fd5b600a546040516001600160a01b038084169216907f8be0079c531659141344cd1fd0a4f28419497f9722a3daafe3b4186f6b6457e090600090a3600a80546001600160a01b0319166001600160a01b0392909216919091179055565b61029a81565b6001600160e01b03191660009081526020819052604090205460ff1690565b60006109fa600283612293565b3390565b600081815260046020526040902080546001600160a01b0319166001600160a01b0384169081179091558190611ec282610faf565b6001600160a01b03167f8c5be1e5ebec7d5bd14f71427d1e84f3dd0314c0f7b2291e5b200ac8c7c3b92560405160405180910390a45050565b611f1582826040518060200160405280600081525061229f565b5050565b60006109fa826122f1565b6000611f2f82611e7c565b611f6a5760405162461bcd60e51b815260040180806020018281038252602c815260200180612bf2602c913960400191505060405180910390fd5b6000611f7583610faf565b9050806001600160a01b0316846001600160a01b03161480611fb05750836001600160a01b0316611fa584610a98565b6001600160a01b0316145b80611fc05750611fc08185611c4a565b949350505050565b826001600160a01b0316611fdb82610faf565b6001600160a01b0316146120205760405162461bcd60e51b8152600401808060200182810382526029815260200180612d396029913960400191505060405180910390fd5b6001600160a01b0382166120655760405162461bcd60e51b8152600401808060200182810382526024815260200180612bce6024913960400191505060405180910390fd5b612070838383610bd0565b61207b600082611e8d565b6001600160a01b038316600090815260016020526040902061209d90826122f5565b506001600160a01b03821660009081526001602052604090206120c09082612301565b506120cd6002828461230d565b5080826001600160a01b0316846001600160a01b03167fddf252ad1be2c89b69c2b068fc378daa952ba7f163c4a11628f55a4df523b3ef60405160405180910390a4505050565b6000610e158383612323565b600080808061212f8686612387565b9097909650945050505050565b8051611f15906009906020840190612ab2565b600061215c848484612402565b90505b9392505050565b612171848484611fc8565b61217d848484846124cc565b6119445760405162461bcd60e51b8152600401808060200182810382526032815260200180612b766032913960400191505060405180910390fd5b6060816121dd57506040805180820190915260018152600360fc1b60208201526109fd565b8160005b81156121f557600101600a820491506121e1565b60008167ffffffffffffffff8111801561220e57600080fd5b506040519080825280601f01601f191660200182016040528015612239576020820181803683370190505b50859350905060001982015b831561228a57600a840660300160f81b8282806001900393508151811061226857fe5b60200101906001600160f81b031916908160001a905350600a84049350612245565b50949350505050565b6000610e158383612634565b6122a9838361264c565b6122b660008484846124cc565b610bd05760405162461bcd60e51b8152600401808060200182810382526032815260200180612b766032913960400191505060405180910390fd5b5490565b6000610e15838361277a565b6000610e158383612840565b600061215c84846001600160a01b03851661288a565b815460009082106123655760405162461bcd60e51b8152600401808060200182810382526022815260200180612b546022913960400191505060405180910390fd5b82600001828154811061237457fe5b9060005260206000200154905092915050565b8154600090819083106123cb5760405162461bcd60e51b8152600401808060200182810382526022815260200180612ccb6022913960400191505060405180910390fd5b60008460000184815481106123dc57fe5b906000526020600020906002020190508060000154816001015492509250509250929050565b6000828152600184016020526040812054828161249d5760405162461bcd60e51b81526004018080602001828103825283818151815260200191508051906020019080838360005b8381101561246257818101518382015260200161244a565b50505050905090810190601f16801561248f5780820380516001836020036101000a031916815260200191505b509250505060405180910390fd5b508460000160018203815481106124b057fe5b9060005260206000209060020201600101549150509392505050565b60006124e0846001600160a01b0316612921565b6124ec57506001611fc0565b60006125fa630a85bd0160e11b612501611e89565b88878760405160240180856001600160a01b03168152602001846001600160a01b0316815260200183815260200180602001828103825283818151815260200191508051906020019080838360005b83811015612568578181015183820152602001612550565b50505050905090810190601f1680156125955780820380516001836020036101000a031916815260200191505b5095505050505050604051602081830303815290604052906001600160e01b0319166020820180516001600160e01b038381831617835250505050604051806060016040528060328152602001612b76603291396001600160a01b0388169190612927565b9050600081806020019051602081101561261357600080fd5b50516001600160e01b031916630a85bd0160e11b1492505050949350505050565b60009081526001919091016020526040902054151590565b6001600160a01b0382166126a7576040805162461bcd60e51b815260206004820181905260248201527f4552433732313a206d696e7420746f20746865207a65726f2061646472657373604482015290519081900360640190fd5b6126b081611e7c565b15612702576040805162461bcd60e51b815260206004820152601c60248201527f4552433732313a20746f6b656e20616c7265616479206d696e74656400000000604482015290519081900360640190fd5b61270e60008383610bd0565b6001600160a01b03821660009081526001602052604090206127309082612301565b5061273d6002828461230d565b5060405181906001600160a01b038416906000907fddf252ad1be2c89b69c2b068fc378daa952ba7f163c4a11628f55a4df523b3ef908290a45050565b6000818152600183016020526040812054801561283657835460001980830191908101906000908790839081106127ad57fe5b90600052602060002001549050808760000184815481106127ca57fe5b6000918252602080832090910192909255828152600189810190925260409020908401905586548790806127fa57fe5b60019003818190600052602060002001600090559055866001016000878152602001908152602001600020600090556001945050505050610e18565b6000915050610e18565b600061284c8383612634565b61288257508154600181810184556000848152602080822090930184905584548482528286019093526040902091909155610e18565b506000610e18565b6000828152600184016020526040812054806128ef57505060408051808201825283815260208082018481528654600181810189556000898152848120955160029093029095019182559151908201558654868452818801909252929091205561215f565b8285600001600183038154811061290257fe5b906000526020600020906002020160010181905550600091505061215f565b3b151590565b606061215c84846000858561293b85612921565b61298c576040805162461bcd60e51b815260206004820152601d60248201527f416464726573733a2063616c6c20746f206e6f6e2d636f6e7472616374000000604482015290519081900360640190fd5b600080866001600160a01b031685876040518082805190602001908083835b602083106129ca5780518252601f1990920191602091820191016129ab565b6001836020036101000a03801982511681845116808217855250505050505090500191505060006040518083038185875af1925050503d8060008114612a2c576040519150601f19603f3d011682016040523d82523d6000602084013e612a31565b606091505b5091509150612a41828286612a4c565b979650505050505050565b60608315612a5b57508161215f565b825115612a6b5782518084602001fd5b60405162461bcd60e51b815260206004820181815284516024840152845185939192839260440191908501908083836000831561246257818101518382015260200161244a565b828054600181600116156101000203166002900490600052602060002090601f016020900481019282612ae85760008555612b2e565b82601f10612b0157805160ff1916838001178555612b2e565b82800160010185558215612b2e579182015b82811115612b2e578251825591602001919060010190612b13565b50612b3a929150612b3e565b5090565b5b80821115612b3a5760008155600101612b3f56fe456e756d657261626c655365743a20696e646578206f7574206f6620626f756e64734552433732313a207472616e7366657220746f206e6f6e20455243373231526563656976657220696d706c656d656e7465724f776e61626c653a206e6577206f776e657220697320746865207a65726f20616464726573734552433732313a207472616e7366657220746f20746865207a65726f20616464726573734552433732313a206f70657261746f7220717565727920666f72206e6f6e6578697374656e7420746f6b656e5468697320746f6b656e2068617320616c7265616479206265656e206d696e7465644552433732313a20617070726f76652063616c6c6572206973206e6f74206f776e6572206e6f7220617070726f76656420666f7220616c6c4552433732313a2062616c616e636520717565727920666f7220746865207a65726f20616464726573734552433732313a206f776e657220717565727920666f72206e6f6e6578697374656e7420746f6b656e456e756d657261626c654d61703a20696e646578206f7574206f6620626f756e64734552433732313a20617070726f76656420717565727920666f72206e6f6e6578697374656e7420746f6b656e4f776e61626c653a2063616c6c6572206973206e6f7420746865206f776e65724552433732313a207472616e73666572206f6620746f6b656e2074686174206973206e6f74206f776e4552433732314d657461646174613a2055524920717565727920666f72206e6f6e6578697374656e7420746f6b656e4552433732313a20617070726f76616c20746f2063757272656e74206f776e6572456e746572206120746f6b656e49642066726f6d203132323920746f20313432304552433732313a207472616e736665722063616c6c6572206973206e6f74206f776e6572206e6f7220617070726f766564a2646970667358221220c92e1445f00ba6a87e794e1000328c485dcb00ff600117a3e24784449db4428564736f6c63430007060033",
  "immutableReferences": {},
  "source": "// SPDX-License-Identifier: MIT\n\npragma solidity ^0.7.0;\n\n// @title: This Shard Does Not Exist\n// @author: Jonathan Howard\n\n/////////////////////////////////////////////////////////////////////////////\n//                                                                         //\n//                                                                         //\n//   //\n//   //\n//   //\n//   //\n//   //\n//   //\n//                                                                         //\n//             //\n//             //\n//             //\n//             //\n//             //\n//             //\n//                                                                         //\n//                                     //\n//                                     //\n//                                     //\n//                                     //\n//                                     //\n//                                     //\n//                                                                         //\n//                                                                         //\n/////////////////////////////////////////////////////////////////////////////\n\n// OpenZeppelin\nimport \"./token/ERC721/ERC721.sol\";\nimport \"./access/Ownable.sol\";\nimport \"./security/ReentrancyGuard.sol\";\nimport \"./introspection/ERC165.sol\";\nimport \"./utils/Strings.sol\";\nimport \"./utils/IERC2981.sol\";\nimport \"./access/Ownable.sol\";\n\nimport \"./FNTNConverter.sol\";\n\ninterface FntnInterface {\n  function ownerOf(uint256 tokenId) external view returns (address owner);\n}\n\ncontract ThisShardDoesNotExist is IERC2981, ERC721, Ownable, ReentrancyGuard, FNTNConverter {\n  using SafeMath for uint8;\n  using SafeMath for uint256;\n  using Strings for string;\n\n  // Max NFTs total\n  uint public constant MAX_TOKENS = 666;\n\n  // Price in gwei per shard (0.069 ETH)\n  uint public constant SHARD_PRICE = 69000000000000000;\n\n  // Allow for starting/pausing sale\n  bool public hasSaleStarted = false;\n\n  // Next tokenId eligible to be minted\n  // First 175 are reserved for shard-hodlers\n  uint internal nextTokenId = 176;\n\n  //FNTN Contract\n  address public fntnAddress = 0x2Fb704d243cFA179fFaD4D87AcB1D36bcf243a44;\n  FntnInterface fntnContract = FntnInterface(fntnAddress);\n\n\t// Royalty, in basis points\n\tuint8 internal royaltyBPS = 100;\n\n  // ERC2891 royalty function, for ERC2891-compatible platforms. See IERC2891\n\tfunction royaltyInfo(uint256, uint256 _salePrice) override external view returns (\n      address receiver, uint256 royaltyAmount) {\n\t\treturn (owner(), (_salePrice * royaltyBPS) / 10_000);\n\t}\n\n  // Update it need be, but no ability to rug\n\tfunction updateRoyaltyBPS(uint8 newRoyaltyBPS) public onlyOwner {\n\t\trequire(royaltyBPS <= 300, \"No greater than 30%\");\n\t\troyaltyBPS = newRoyaltyBPS;\n\t}\n\n  /*\n   * Set up the basics\n   *\n   * @dev It will NOT be ready to start sale immediately upon deploy\n   */\n  constructor(string memory baseURI) ERC721(\"This Shard Does Not Exist\",\"AIFNTN\") {\n    setBaseURI(baseURI);\n  }\n\n  /*\n   * Get the tokens owned by _owner\n   */\n  function tokensOfOwner(address _owner) external view returns(uint256[] memory ) {\n    uint256 tokenCount = balanceOf(_owner);\n    if (tokenCount == 0) {\n      // Return an empty array\n      return new uint256[](0);\n    } else {\n      uint256[] memory result = new uint256[](tokenCount);\n      uint256 index;\n      for (index = 0; index < tokenCount; index++) {\n        result[index] = tokenOfOwnerByIndex(_owner, index);\n      }\n      return result;\n    }\n  }\n\n  /*\n   * Main function for the sale\n   *\n   * prerequisites\n   *  - not at max supply\n   *  - sale has started\n   */\n  function mint() external payable nonReentrant {\n    require(nextTokenId <= MAX_TOKENS, \"We are at max supply\");\n    require(hasSaleStarted, \"Sale hasn't started\");\n    require(msg.value == SHARD_PRICE, \"Ether value required is 0.069\");\n\n    _safeMint(msg.sender, nextTokenId++);\n  }\n\n  /*\n   * Buy the token reserved for your shard\n   *\n   * Prerequisites:\n   *  - not at max supply\n   *  - sale has started\n   *  - your wallet owns the shard ID in question\n   *\n   * Example input: To mint for FNTN // 137, you would not input\n   * 137, but the tokenId in its shared contract. If you don't know this\n   * ID, your best bet is the website. But it will also be after the final '/'\n   * in the URL of your shard on OpenSea, eg https://opensea.io/0xetcetcetc/shardId\n   */\n  function mintWithShard(uint tokenId) external payable nonReentrant {\n    require(hasSaleStarted, \"Sale hasn't started\");\n    require(msg.value == SHARD_PRICE, \"Ether value required is 0.069\");\n    // Duplicate this here to potentially save people gas\n    require(tokenId >= 1229 && tokenId <= 1420, \"Enter a sharId from 1229 to 1420\");\n\n    // Ensure sender owns shard in question\n    require(fntnContract.ownerOf(tokenId) == msg.sender, \"Not the owner of this shard\");\n\n    // Convert to the shard ID (the number in \"FNTN // __\")\n    uint shardId = tokenIdToShardId(tokenId);\n\n    // Mint if token doesn't exist\n    require(!_exists(shardId), \"This token has already been minted\");\n    _safeMint(msg.sender, shardId);\n  }\n\n  // TODO: selector for 2981\n\t// Handy while calculating XOR of all function selectors\n\tfunction calculateSelector() public pure returns (bytes4) {\n\t\treturn type(IERC2981).interfaceId;\n\t}\n\n  /**\n   * @dev See {IERC165-supportsInterface}.\n   */\n  function supportsInterface(bytes4 interfaceId) public view override(ERC165) returns (bool) {\n    return ERC165.supportsInterface(interfaceId);\n  }\n\n  /**\n   * @dev See {IERC721Metadata-tokenURI}.\n   */\n  function tokenURI(uint256 tokenId) public view virtual override returns (string memory) {\n    require(_exists(tokenId), \"ERC721Metadata: URI query for nonexistent token\");\n\n    return string(abi.encodePacked(\n\t\t\tbaseURI(),\n\t\t\tStrings.toString(tokenId),\n\t\t\t\"/index.json\"\n\t\t));\n  }\n    \n\n  // Admin functions\n  function setFntnContract(address contractAddress) public onlyOwner {\n    fntnAddress = contractAddress;\n  }\n\n  function setBaseURI(string memory baseURI) public onlyOwner {\n    _setBaseURI(baseURI);\n  }\n\n  function getNextPublicTokenId() public view returns(uint) {\n    return nextTokenId;\n  }\n\n  function startSale() public onlyOwner {\n    hasSaleStarted = true;\n  }\n\n  function pauseSale() public onlyOwner {\n    hasSaleStarted = false;\n  }\n\n  function withdrawAll() public payable onlyOwner {\n    require(payable(msg.sender).send(address(this).balance));\n  }\n}\n",
  "sourcePath": "/Users/jon/Code/shl0ms-ai-shards/contracts/ThisShardDoesNotExist.sol",
  "compiler": {
    "name": "solc",
    "version": "0.7.6+commit.7338295f.Emscripten.clang"
  },
  "schemaVersion": "3.3.4",
  "updatedAt": "2021-09-06T21:50:58.375Z",
  "networkType": "ethereum",
  "devdoc": {
    "kind": "dev",
    "methods": {
      "approve(address,uint256)": {
        "details": "See {IERC721-approve}."
      },
      "balanceOf(address)": {
        "details": "See {IERC721-balanceOf}."
      },
      "baseURI()": {
        "details": "Returns the base URI set via {_setBaseURI}. This will be automatically added as a prefix in {tokenURI} to each token's URI, or to the token ID if no specific URI is set for that token ID."
      },
      "getApproved(uint256)": {
        "details": "See {IERC721-getApproved}."
      },
      "isApprovedForAll(address,address)": {
        "details": "See {IERC721-isApprovedForAll}."
      },
      "name()": {
        "details": "See {IERC721Metadata-name}."
      },
      "owner()": {
        "details": "Returns the address of the current owner."
      },
      "ownerOf(uint256)": {
        "details": "See {IERC721-ownerOf}."
      },
      "renounceOwnership()": {
        "details": "Leaves the contract without owner. It will not be possible to call `onlyOwner` functions anymore. Can only be called by the current owner. NOTE: Renouncing ownership will leave the contract without an owner, thereby removing any functionality that is only available to the owner."
      },
      "safeTransferFrom(address,address,uint256)": {
        "details": "See {IERC721-safeTransferFrom}."
      },
      "safeTransferFrom(address,address,uint256,bytes)": {
        "details": "See {IERC721-safeTransferFrom}."
      },
      "setApprovalForAll(address,bool)": {
        "details": "See {IERC721-setApprovalForAll}."
      },
      "supportsInterface(bytes4)": {
        "details": "See {IERC165-supportsInterface}."
      },
      "symbol()": {
        "details": "See {IERC721Metadata-symbol}."
      },
      "tokenByIndex(uint256)": {
        "details": "See {IERC721Enumerable-tokenByIndex}."
      },
      "tokenOfOwnerByIndex(address,uint256)": {
        "details": "See {IERC721Enumerable-tokenOfOwnerByIndex}."
      },
      "tokenURI(uint256)": {
        "details": "See {IERC721Metadata-tokenURI}."
      },
      "totalSupply()": {
        "details": "See {IERC721Enumerable-totalSupply}."
      },
      "transferFrom(address,address,uint256)": {
        "details": "See {IERC721-transferFrom}."
      },
      "transferOwnership(address)": {
        "details": "Transfers ownership of the contract to a new account (`newOwner`). Can only be called by the current owner."
      }
    },
    "version": 1
  },
  "userdoc": {
    "kind": "user",
    "methods": {},
    "version": 1
  }
}