{
  "contractName": "ThisShardDoesNotExist",
  "abi": [
    {
      "inputs": [
        {
          "internalType": "string",
          "name": "baseURI",
          "type": "string"
        }
      ],
      "stateMutability": "nonpayable",
      "type": "constructor"
    },
    {
      "anonymous": false,
      "inputs": [
        {
          "indexed": true,
          "internalType": "address",
          "name": "owner",
          "type": "address"
        },
        {
          "indexed": true,
          "internalType": "address",
          "name": "approved",
          "type": "address"
        },
        {
          "indexed": true,
          "internalType": "uint256",
          "name": "tokenId",
          "type": "uint256"
        }
      ],
      "name": "Approval",
      "type": "event"
    },
    {
      "anonymous": false,
      "inputs": [
        {
          "indexed": true,
          "internalType": "address",
          "name": "owner",
          "type": "address"
        },
        {
          "indexed": true,
          "internalType": "address",
          "name": "operator",
          "type": "address"
        },
        {
          "indexed": false,
          "internalType": "bool",
          "name": "approved",
          "type": "bool"
        }
      ],
      "name": "ApprovalForAll",
      "type": "event"
    },
    {
      "anonymous": false,
      "inputs": [
        {
          "indexed": true,
          "internalType": "address",
          "name": "previousOwner",
          "type": "address"
        },
        {
          "indexed": true,
          "internalType": "address",
          "name": "newOwner",
          "type": "address"
        }
      ],
      "name": "OwnershipTransferred",
      "type": "event"
    },
    {
      "anonymous": false,
      "inputs": [
        {
          "indexed": true,
          "internalType": "address",
          "name": "from",
          "type": "address"
        },
        {
          "indexed": true,
          "internalType": "address",
          "name": "to",
          "type": "address"
        },
        {
          "indexed": true,
          "internalType": "uint256",
          "name": "tokenId",
          "type": "uint256"
        }
      ],
      "name": "Transfer",
      "type": "event"
    },
    {
      "inputs": [],
      "name": "MAX_TOKENS",
      "outputs": [
        {
          "internalType": "uint256",
          "name": "",
          "type": "uint256"
        }
      ],
      "stateMutability": "view",
      "type": "function"
    },
    {
      "inputs": [],
      "name": "SHARD_PRICE",
      "outputs": [
        {
          "internalType": "uint256",
          "name": "",
          "type": "uint256"
        }
      ],
      "stateMutability": "view",
      "type": "function"
    },
    {
      "inputs": [
        {
          "internalType": "address",
          "name": "to",
          "type": "address"
        },
        {
          "internalType": "uint256",
          "name": "tokenId",
          "type": "uint256"
        }
      ],
      "name": "approve",
      "outputs": [],
      "stateMutability": "nonpayable",
      "type": "function"
    },
    {
      "inputs": [
        {
          "internalType": "address",
          "name": "owner",
          "type": "address"
        }
      ],
      "name": "balanceOf",
      "outputs": [
        {
          "internalType": "uint256",
          "name": "",
          "type": "uint256"
        }
      ],
      "stateMutability": "view",
      "type": "function"
    },
    {
      "inputs": [],
      "name": "baseURI",
      "outputs": [
        {
          "internalType": "string",
          "name": "",
          "type": "string"
        }
      ],
      "stateMutability": "view",
      "type": "function"
    },
    {
      "inputs": [],
      "name": "fntnAddress",
      "outputs": [
        {
          "internalType": "address",
          "name": "",
          "type": "address"
        }
      ],
      "stateMutability": "view",
      "type": "function"
    },
    {
      "inputs": [
        {
          "internalType": "uint256",
          "name": "tokenId",
          "type": "uint256"
        }
      ],
      "name": "getApproved",
      "outputs": [
        {
          "internalType": "address",
          "name": "",
          "type": "address"
        }
      ],
      "stateMutability": "view",
      "type": "function"
    },
    {
      "inputs": [],
      "name": "hasSaleStarted",
      "outputs": [
        {
          "internalType": "bool",
          "name": "",
          "type": "bool"
        }
      ],
      "stateMutability": "view",
      "type": "function"
    },
    {
      "inputs": [
        {
          "internalType": "address",
          "name": "owner",
          "type": "address"
        },
        {
          "internalType": "address",
          "name": "operator",
          "type": "address"
        }
      ],
      "name": "isApprovedForAll",
      "outputs": [
        {
          "internalType": "bool",
          "name": "",
          "type": "bool"
        }
      ],
      "stateMutability": "view",
      "type": "function"
    },
    {
      "inputs": [],
      "name": "name",
      "outputs": [
        {
          "internalType": "string",
          "name": "",
          "type": "string"
        }
      ],
      "stateMutability": "view",
      "type": "function"
    },
    {
      "inputs": [],
      "name": "owner",
      "outputs": [
        {
          "internalType": "address",
          "name": "",
          "type": "address"
        }
      ],
      "stateMutability": "view",
      "type": "function"
    },
    {
      "inputs": [
        {
          "internalType": "uint256",
          "name": "tokenId",
          "type": "uint256"
        }
      ],
      "name": "ownerOf",
      "outputs": [
        {
          "internalType": "address",
          "name": "",
          "type": "address"
        }
      ],
      "stateMutability": "view",
      "type": "function"
    },
    {
      "inputs": [],
      "name": "renounceOwnership",
      "outputs": [],
      "stateMutability": "nonpayable",
      "type": "function"
    },
    {
      "inputs": [
        {
          "internalType": "address",
          "name": "from",
          "type": "address"
        },
        {
          "internalType": "address",
          "name": "to",
          "type": "address"
        },
        {
          "internalType": "uint256",
          "name": "tokenId",
          "type": "uint256"
        }
      ],
      "name": "safeTransferFrom",
      "outputs": [],
      "stateMutability": "nonpayable",
      "type": "function"
    },
    {
      "inputs": [
        {
          "internalType": "address",
          "name": "from",
          "type": "address"
        },
        {
          "internalType": "address",
          "name": "to",
          "type": "address"
        },
        {
          "internalType": "uint256",
          "name": "tokenId",
          "type": "uint256"
        },
        {
          "internalType": "bytes",
          "name": "_data",
          "type": "bytes"
        }
      ],
      "name": "safeTransferFrom",
      "outputs": [],
      "stateMutability": "nonpayable",
      "type": "function"
    },
    {
      "inputs": [
        {
          "internalType": "address",
          "name": "operator",
          "type": "address"
        },
        {
          "internalType": "bool",
          "name": "approved",
          "type": "bool"
        }
      ],
      "name": "setApprovalForAll",
      "outputs": [],
      "stateMutability": "nonpayable",
      "type": "function"
    },
    {
      "inputs": [],
      "name": "symbol",
      "outputs": [
        {
          "internalType": "string",
          "name": "",
          "type": "string"
        }
      ],
      "stateMutability": "view",
      "type": "function"
    },
    {
      "inputs": [
        {
          "internalType": "uint256",
          "name": "index",
          "type": "uint256"
        }
      ],
      "name": "tokenByIndex",
      "outputs": [
        {
          "internalType": "uint256",
          "name": "",
          "type": "uint256"
        }
      ],
      "stateMutability": "view",
      "type": "function"
    },
    {
      "inputs": [
        {
          "internalType": "address",
          "name": "owner",
          "type": "address"
        },
        {
          "internalType": "uint256",
          "name": "index",
          "type": "uint256"
        }
      ],
      "name": "tokenOfOwnerByIndex",
      "outputs": [
        {
          "internalType": "uint256",
          "name": "",
          "type": "uint256"
        }
      ],
      "stateMutability": "view",
      "type": "function"
    },
    {
      "inputs": [],
      "name": "totalSupply",
      "outputs": [
        {
          "internalType": "uint256",
          "name": "",
          "type": "uint256"
        }
      ],
      "stateMutability": "view",
      "type": "function"
    },
    {
      "inputs": [
        {
          "internalType": "address",
          "name": "from",
          "type": "address"
        },
        {
          "internalType": "address",
          "name": "to",
          "type": "address"
        },
        {
          "internalType": "uint256",
          "name": "tokenId",
          "type": "uint256"
        }
      ],
      "name": "transferFrom",
      "outputs": [],
      "stateMutability": "nonpayable",
      "type": "function"
    },
    {
      "inputs": [
        {
          "internalType": "address",
          "name": "newOwner",
          "type": "address"
        }
      ],
      "name": "transferOwnership",
      "outputs": [],
      "stateMutability": "nonpayable",
      "type": "function"
    },
    {
      "inputs": [
        {
          "internalType": "address",
          "name": "_owner",
          "type": "address"
        }
      ],
      "name": "tokensOfOwner",
      "outputs": [
        {
          "internalType": "uint256[]",
          "name": "",
          "type": "uint256[]"
        }
      ],
      "stateMutability": "view",
      "type": "function"
    },
    {
      "inputs": [],
      "name": "mint",
      "outputs": [],
      "stateMutability": "payable",
      "type": "function"
    },
    {
      "inputs": [
        {
          "internalType": "uint256",
          "name": "shardId",
          "type": "uint256"
        }
      ],
      "name": "mintWithShard",
      "outputs": [],
      "stateMutability": "payable",
      "type": "function"
    },
    {
      "inputs": [
        {
          "internalType": "uint256",
          "name": "shardId",
          "type": "uint256"
        }
      ],
      "name": "shardIdToTokenId",
      "outputs": [
        {
          "internalType": "uint256",
          "name": "",
          "type": "uint256"
        }
      ],
      "stateMutability": "view",
      "type": "function"
    },
    {
      "inputs": [
        {
          "internalType": "bytes4",
          "name": "interfaceId",
          "type": "bytes4"
        }
      ],
      "name": "supportsInterface",
      "outputs": [
        {
          "internalType": "bool",
          "name": "",
          "type": "bool"
        }
      ],
      "stateMutability": "view",
      "type": "function"
    },
    {
      "inputs": [
        {
          "internalType": "uint256",
          "name": "tokenId",
          "type": "uint256"
        }
      ],
      "name": "tokenURI",
      "outputs": [
        {
          "internalType": "string",
          "name": "",
          "type": "string"
        }
      ],
      "stateMutability": "view",
      "type": "function"
    },
    {
      "inputs": [
        {
          "internalType": "string",
          "name": "baseURI",
          "type": "string"
        }
      ],
      "name": "setBaseURI",
      "outputs": [],
      "stateMutability": "nonpayable",
      "type": "function"
    },
    {
      "inputs": [],
      "name": "getNextPublicTokenId",
      "outputs": [
        {
          "internalType": "uint256",
          "name": "",
          "type": "uint256"
        }
      ],
      "stateMutability": "view",
      "type": "function"
    },
    {
      "inputs": [],
      "name": "startSale",
      "outputs": [],
      "stateMutability": "nonpayable",
      "type": "function"
    },
    {
      "inputs": [],
      "name": "pauseSale",
      "outputs": [],
      "stateMutability": "nonpayable",
      "type": "function"
    },
    {
      "inputs": [],
      "name": "withdrawAll",
      "outputs": [],
      "stateMutability": "payable",
      "type": "function"
    }
  ],
  "bytecode": "0x6080604052600c805460ff1916905560b0600d55600e80546001600160a01b0319908116732fb704d243cfa179ffad4d87acb1d36bcf243a441791829055600f80549091166001600160a01b03929092169190911790553480156200006357600080fd5b5060405162002f3c38038062002f3c833981810160405260208110156200008957600080fd5b8101908080516040519392919084640100000000821115620000aa57600080fd5b908301906020820185811115620000c057600080fd5b8251640100000000811182820188101715620000db57600080fd5b82525081516020918201929091019080838360005b838110156200010a578181015183820152602001620000f0565b50505050905090810190601f168015620001385780820380516001836020036101000a031916815260200191505b5060408181018152601982527f5468697320536861726420446f6573204e6f74204578697374000000000000006020808401919091528151808301909252600682526520a4a3272a2760d11b908201529093509150620001a190506301ffc9a760e01b62000277565b8151620001b6906006906020850190620003af565b508051620001cc906007906020840190620003af565b50620001df6380ac58cd60e01b62000277565b620001f1635b5e139f60e01b62000277565b6200020363780e9d6360e01b62000277565b506000905062000212620002fc565b600a80546001600160a01b0319166001600160a01b038316908117909155604051919250906000907f8be0079c531659141344cd1fd0a4f28419497f9722a3daafe3b4186f6b6457e0908290a3506001600b55620002708162000300565b506200045b565b6001600160e01b03198082161415620002d7576040805162461bcd60e51b815260206004820152601c60248201527f4552433136353a20696e76616c696420696e7465726661636520696400000000604482015290519081900360640190fd5b6001600160e01b0319166000908152602081905260409020805460ff19166001179055565b3390565b6200030a620002fc565b6001600160a01b03166200031d62000387565b6001600160a01b03161462000379576040805162461bcd60e51b815260206004820181905260248201527f4f776e61626c653a2063616c6c6572206973206e6f7420746865206f776e6572604482015290519081900360640190fd5b620003848162000396565b50565b600a546001600160a01b031690565b8051620003ab906009906020840190620003af565b5050565b828054600181600116156101000203166002900490600052602060002090601f016020900481019282620003e7576000855562000432565b82601f106200040257805160ff191683800117855562000432565b8280016001018555821562000432579182015b828111156200043257825182559160200191906001019062000415565b506200044092915062000444565b5090565b5b8082111562000440576000815560010162000445565b612ad1806200046b6000396000f3fe6080604052600436106101ae5760003560e01c80636c0360eb116100ed578063a22cb46511610090578063a22cb46514610674578063a864e86b146106af578063b66a0e5d146106cc578063b88d4fde146106e1578063c8631b7b146107b2578063c87b56dd146107dc578063e985e9c514610806578063f2fde38b14610841578063f47c84c514610874576101ae565b80636c0360eb1461054d57806370a0823114610562578063715018a61461059557806373bde577146105aa5780638462151c146105bf578063853828b6146106425780638da5cb5b1461064a57806395d89b411461065f576101ae565b806326e7fef31161015557806326e7fef31461038d57806327fa3f24146103a25780632f745c59146103b757806342842e0e146103f05780634f6ccce71461043357806355367ba91461045d57806355f804b3146104725780636352211e14610523576101ae565b806301ffc9a7146101b357806306fdde03146101fb578063081812fc14610285578063095ea7b3146102cb5780631249c58b1461030657806318160ddd1461030e5780631c8b232d1461033557806323b872dd1461034a575b600080fd5b3480156101bf57600080fd5b506101e7600480360360208110156101d657600080fd5b50356001600160e01b031916610889565b604080519115158252519081900360200190f35b34801561020757600080fd5b5061021061089c565b6040805160208082528351818301528351919283929083019185019080838360005b8381101561024a578181015183820152602001610232565b50505050905090810190601f1680156102775780820380516001836020036101000a031916815260200191505b509250505060405180910390f35b34801561029157600080fd5b506102af600480360360208110156102a857600080fd5b5035610932565b604080516001600160a01b039092168252519081900360200190f35b3480156102d757600080fd5b50610304600480360360408110156102ee57600080fd5b506001600160a01b038135169060200135610994565b005b610304610a6f565b34801561031a57600080fd5b50610323610be1565b60408051918252519081900360200190f35b34801561034157600080fd5b506101e7610bf2565b34801561035657600080fd5b506103046004803603606081101561036d57600080fd5b506001600160a01b03813581169160208101359091169060400135610bfb565b34801561039957600080fd5b50610323610c52565b3480156103ae57600080fd5b50610323610c58565b3480156103c357600080fd5b50610323600480360360408110156103da57600080fd5b506001600160a01b038135169060200135610c63565b3480156103fc57600080fd5b506103046004803603606081101561041357600080fd5b506001600160a01b03813581169160208101359091169060400135610c8e565b34801561043f57600080fd5b506103236004803603602081101561045657600080fd5b5035610ca9565b34801561046957600080fd5b50610304610cbf565b34801561047e57600080fd5b506103046004803603602081101561049557600080fd5b810190602081018135600160201b8111156104af57600080fd5b8201836020820111156104c157600080fd5b803590602001918460018302840111600160201b831117156104e257600080fd5b91908080601f016020809104026020016040519081016040528093929190818152602001838380828437600092019190915250929550610d2d945050505050565b34801561052f57600080fd5b506102af6004803603602081101561054657600080fd5b5035610d9b565b34801561055957600080fd5b50610210610dc3565b34801561056e57600080fd5b506103236004803603602081101561058557600080fd5b50356001600160a01b0316610e24565b3480156105a157600080fd5b50610304610e8c565b3480156105b657600080fd5b506102af610f38565b3480156105cb57600080fd5b506105f2600480360360208110156105e257600080fd5b50356001600160a01b0316610f47565b60408051602080825283518183015283519192839290830191858101910280838360005b8381101561062e578181015183820152602001610616565b505050509050019250505060405180910390f35b610304610ff5565b34801561065657600080fd5b506102af61107d565b34801561066b57600080fd5b5061021061108c565b34801561068057600080fd5b506103046004803603604081101561069757600080fd5b506001600160a01b03813516906020013515156110ed565b610304600480360360208110156106c557600080fd5b50356111ee565b3480156106d857600080fd5b50610304611491565b3480156106ed57600080fd5b506103046004803603608081101561070457600080fd5b6001600160a01b03823581169260208101359091169160408201359190810190608081016060820135600160201b81111561073e57600080fd5b82018360208201111561075057600080fd5b803590602001918460018302840111600160201b8311171561077157600080fd5b91908080601f016020809104026020016040519081016040528093929190818152602001838380828437600092019190915250929550611502945050505050565b3480156107be57600080fd5b50610323600480360360208110156107d557600080fd5b5035611560565b3480156107e857600080fd5b50610210600480360360208110156107ff57600080fd5b50356116eb565b34801561081257600080fd5b506101e76004803603604081101561082957600080fd5b506001600160a01b0381358116916020013516611788565b34801561084d57600080fd5b506103046004803603602081101561086457600080fd5b50356001600160a01b03166117b6565b34801561088057600080fd5b506103236118b9565b6000610894826118bf565b90505b919050565b60068054604080516020601f60026000196101006001881615020190951694909404938401819004810282018101909252828152606093909290918301828280156109285780601f106108fd57610100808354040283529160200191610928565b820191906000526020600020905b81548152906001019060200180831161090b57829003601f168201915b5050505050905090565b600061093d826118de565b6109785760405162461bcd60e51b815260040180806020018281038252602c8152602001806129a6602c913960400191505060405180910390fd5b506000908152600460205260409020546001600160a01b031690565b600061099f82610d9b565b9050806001600160a01b0316836001600160a01b031614156109f25760405162461bcd60e51b8152600401808060200182810382526021815260200180612a4a6021913960400191505060405180910390fd5b806001600160a01b0316610a046118eb565b6001600160a01b03161480610a255750610a2581610a206118eb565b611788565b610a605760405162461bcd60e51b81526004018080602001828103825260388152602001806128f96038913960400191505060405180910390fd5b610a6a83836118ef565b505050565b6002600b541415610ac7576040805162461bcd60e51b815260206004820152601f60248201527f5265656e7472616e637947756172643a207265656e7472616e742063616c6c00604482015290519081900360640190fd5b6002600b55600d5461029a1015610b1c576040805162461bcd60e51b8152602060048201526014602482015273576520617265206174206d617820737570706c7960601b604482015290519081900360640190fd5b600c5460ff16610b69576040805162461bcd60e51b815260206004820152601360248201527214d85b19481a185cdb89dd081cdd185c9d1959606a1b604482015290519081900360640190fd5b66f52322698080003414610bc4576040805162461bcd60e51b815260206004820152601d60248201527f45746865722076616c756520726571756972656420697320302e303639000000604482015290519081900360640190fd5b600d805460018101909155610bda90339061195d565b6001600b55565b6000610bed600261197b565b905090565b600c5460ff1681565b610c0c610c066118eb565b82611986565b610c475760405162461bcd60e51b8152600401808060200182810382526031815260200180612a6b6031913960400191505060405180910390fd5b610a6a838383611a22565b600d5490565b66f523226980800081565b6001600160a01b0382166000908152600160205260408120610c859083611b6e565b90505b92915050565b610a6a83838360405180602001604052806000815250611502565b600080610cb7600284611b7a565b509392505050565b610cc76118eb565b6001600160a01b0316610cd861107d565b6001600160a01b031614610d21576040805162461bcd60e51b815260206004820181905260248201526000805160206129d2833981519152604482015290519081900360640190fd5b600c805460ff19169055565b610d356118eb565b6001600160a01b0316610d4661107d565b6001600160a01b031614610d8f576040805162461bcd60e51b815260206004820181905260248201526000805160206129d2833981519152604482015290519081900360640190fd5b610d9881611b96565b50565b60006108948260405180606001604052806029815260200161295b6029913960029190611ba9565b60098054604080516020601f60026000196101006001881615020190951694909404938401819004810282018101909252828152606093909290918301828280156109285780601f106108fd57610100808354040283529160200191610928565b60006001600160a01b038216610e6b5760405162461bcd60e51b815260040180806020018281038252602a815260200180612931602a913960400191505060405180910390fd5b6001600160a01b03821660009081526001602052604090206108949061197b565b610e946118eb565b6001600160a01b0316610ea561107d565b6001600160a01b031614610eee576040805162461bcd60e51b815260206004820181905260248201526000805160206129d2833981519152604482015290519081900360640190fd5b600a546040516000916001600160a01b0316907f8be0079c531659141344cd1fd0a4f28419497f9722a3daafe3b4186f6b6457e0908390a3600a80546001600160a01b0319169055565b600e546001600160a01b031681565b60606000610f5483610e24565b905080610f71575050604080516000815260208101909152610897565b60008167ffffffffffffffff81118015610f8a57600080fd5b50604051908082528060200260200182016040528015610fb4578160200160208202803683370190505b50905060005b82811015610feb57610fcc8582610c63565b828281518110610fd857fe5b6020908102919091010152600101610fba565b5091506108979050565b610ffd6118eb565b6001600160a01b031661100e61107d565b6001600160a01b031614611057576040805162461bcd60e51b815260206004820181905260248201526000805160206129d2833981519152604482015290519081900360640190fd5b60405133904780156108fc02916000818181858888f1935050505061107b57600080fd5b565b600a546001600160a01b031690565b60078054604080516020601f60026000196101006001881615020190951694909404938401819004810282018101909252828152606093909290918301828280156109285780601f106108fd57610100808354040283529160200191610928565b6110f56118eb565b6001600160a01b0316826001600160a01b03161415611157576040805162461bcd60e51b815260206004820152601960248201527822a9219b99189d1030b8383937bb32903a379031b0b63632b960391b604482015290519081900360640190fd5b80600560006111646118eb565b6001600160a01b03908116825260208083019390935260409182016000908120918716808252919093529120805460ff1916921515929092179091556111a86118eb565b6001600160a01b03167f17307eab39ab6107e8899845ad3d59bd9653f200f220920489ca2b5937696c318360405180821515815260200191505060405180910390a35050565b6002600b541415611246576040805162461bcd60e51b815260206004820152601f60248201527f5265656e7472616e637947756172643a207265656e7472616e742063616c6c00604482015290519081900360640190fd5b6002600b55600c5460ff16611298576040805162461bcd60e51b815260206004820152601360248201527214d85b19481a185cdb89dd081cdd185c9d1959606a1b604482015290519081900360640190fd5b66f523226980800034146112f3576040805162461bcd60e51b815260206004820152601d60248201527f45746865722076616c756520726571756972656420697320302e303639000000604482015290519081900360640190fd5b60018110158015611305575060af8111155b611356576040805162461bcd60e51b815260206004820152601d60248201527f456e746572206120736861726449642066726f6d203120746f20313735000000604482015290519081900360640190fd5b600061136182611560565b600f54604080516331a9108f60e11b815260048101849052905192935033926001600160a01b0390921691636352211e91602480820192602092909190829003018186803b1580156113b257600080fd5b505afa1580156113c6573d6000803e3d6000fd5b505050506040513d60208110156113dc57600080fd5b50516001600160a01b031614611439576040805162461bcd60e51b815260206004820152601b60248201527f4e6f7420746865206f776e6572206f6620746869732073686172640000000000604482015290519081900360640190fd5b611442826118de565b1561147e5760405162461bcd60e51b81526004018080602001828103825260228152602001806128d76022913960400191505060405180910390fd5b611488338361195d565b50506001600b55565b6114996118eb565b6001600160a01b03166114aa61107d565b6001600160a01b0316146114f3576040805162461bcd60e51b815260206004820181905260248201526000805160206129d2833981519152604482015290519081900360640190fd5b600c805460ff19166001179055565b61151361150d6118eb565b83611986565b61154e5760405162461bcd60e51b8152600401808060200182810382526031815260200180612a6b6031913960400191505060405180910390fd5b61155a84848484611bc0565b50505050565b600060018210158015611574575060af8211155b6115c5576040805162461bcd60e51b815260206004820152601d60248201527f456e746572206120736861726449642066726f6d203120746f20313735000000604482015290519081900360640190fd5b600082600114156115d957506104b3610894565b82600214156115eb575061058c610894565b600383101580156115fd575060058311155b1561160d57506104cd8201610894565b6008831015801561161f575060248311155b1561162f57506104ce8201610894565b602583101580156116415750603a8311155b1561165157506104cf8201610894565b603b83101580156116635750603e8311155b1561167357506104cf8201610894565b603f83101580156116855750604b8311155b1561169557506104da8201610894565b604c83101580156116a7575060928311155b156116b757506105408201610894565b60a583101580156116c9575060af8311155b156116d957506104698201610894565b8260af1415610894575060af92915050565b60606116f6826118de565b6117315760405162461bcd60e51b815260040180806020018281038252602f815260200180612a1b602f913960400191505060405180910390fd5b600061173b610dc3565b9050600061177461174b85611c12565b6040518060400160405280600b81526020016a17b4b73232bc173539b7b760a91b815250611cea565b90506117808282611cea565b949350505050565b6001600160a01b03918216600090815260056020908152604080832093909416825291909152205460ff1690565b6117be6118eb565b6001600160a01b03166117cf61107d565b6001600160a01b031614611818576040805162461bcd60e51b815260206004820181905260248201526000805160206129d2833981519152604482015290519081900360640190fd5b6001600160a01b03811661185d5760405162461bcd60e51b81526004018080602001828103825260268152602001806128616026913960400191505060405180910390fd5b600a546040516001600160a01b038084169216907f8be0079c531659141344cd1fd0a4f28419497f9722a3daafe3b4186f6b6457e090600090a3600a80546001600160a01b0319166001600160a01b0392909216919091179055565b61029a81565b6001600160e01b03191660009081526020819052604090205460ff1690565b6000610894600283611d26565b3390565b600081815260046020526040902080546001600160a01b0319166001600160a01b038416908117909155819061192482610d9b565b6001600160a01b03167f8c5be1e5ebec7d5bd14f71427d1e84f3dd0314c0f7b2291e5b200ac8c7c3b92560405160405180910390a45050565b611977828260405180602001604052806000815250611d32565b5050565b600061089482611d84565b6000611991826118de565b6119cc5760405162461bcd60e51b815260040180806020018281038252602c8152602001806128ab602c913960400191505060405180910390fd5b60006119d783610d9b565b9050806001600160a01b0316846001600160a01b03161480611a125750836001600160a01b0316611a0784610932565b6001600160a01b0316145b8061178057506117808185611788565b826001600160a01b0316611a3582610d9b565b6001600160a01b031614611a7a5760405162461bcd60e51b81526004018080602001828103825260298152602001806129f26029913960400191505060405180910390fd5b6001600160a01b038216611abf5760405162461bcd60e51b81526004018080602001828103825260248152602001806128876024913960400191505060405180910390fd5b611aca838383610a6a565b611ad56000826118ef565b6001600160a01b0383166000908152600160205260409020611af79082611d88565b506001600160a01b0382166000908152600160205260409020611b1a9082611d94565b50611b2760028284611da0565b5080826001600160a01b0316846001600160a01b03167fddf252ad1be2c89b69c2b068fc378daa952ba7f163c4a11628f55a4df523b3ef60405160405180910390a4505050565b6000610c858383611db6565b6000808080611b898686611e1a565b9097909650945050505050565b805161197790600990602084019061276b565b6000611bb6848484611e95565b90505b9392505050565b611bcb848484611a22565b611bd784848484611f5f565b61155a5760405162461bcd60e51b815260040180806020018281038252603281526020018061282f6032913960400191505060405180910390fd5b606081611c3757506040805180820190915260018152600360fc1b6020820152610897565b8160005b8115611c4f57600101600a82049150611c3b565b60008167ffffffffffffffff81118015611c6857600080fd5b506040519080825280601f01601f191660200182016040528015611c93576020820181803683370190505b50905060001982015b8515611ce157600a860660300160f81b82828060019003935081518110611cbf57fe5b60200101906001600160f81b031916908160001a905350600a86049550611c9c565b50949350505050565b6060610c8583836040518060200160405280600081525060405180602001604052806000815250604051806020016040528060008152506120c7565b6000610c8583836122ed565b611d3c8383612305565b611d496000848484611f5f565b610a6a5760405162461bcd60e51b815260040180806020018281038252603281526020018061282f6032913960400191505060405180910390fd5b5490565b6000610c858383612433565b6000610c8583836124f9565b6000611bb684846001600160a01b038516612543565b81546000908210611df85760405162461bcd60e51b815260040180806020018281038252602281526020018061280d6022913960400191505060405180910390fd5b826000018281548110611e0757fe5b9060005260206000200154905092915050565b815460009081908310611e5e5760405162461bcd60e51b81526004018080602001828103825260228152602001806129846022913960400191505060405180910390fd5b6000846000018481548110611e6f57fe5b906000526020600020906002020190508060000154816001015492509250509250929050565b60008281526001840160205260408120548281611f305760405162461bcd60e51b81526004018080602001828103825283818151815260200191508051906020019080838360005b83811015611ef5578181015183820152602001611edd565b50505050905090810190601f168015611f225780820380516001836020036101000a031916815260200191505b509250505060405180910390fd5b50846000016001820381548110611f4357fe5b9060005260206000209060020201600101549150509392505050565b6000611f73846001600160a01b03166125da565b611f7f57506001611780565b600061208d630a85bd0160e11b611f946118eb565b88878760405160240180856001600160a01b03168152602001846001600160a01b0316815260200183815260200180602001828103825283818151815260200191508051906020019080838360005b83811015611ffb578181015183820152602001611fe3565b50505050905090810190601f1680156120285780820380516001836020036101000a031916815260200191505b5095505050505050604051602081830303815290604052906001600160e01b0319166020820180516001600160e01b03838183161783525050505060405180606001604052806032815260200161282f603291396001600160a01b03881691906125e0565b905060008180602001905160208110156120a657600080fd5b50516001600160e01b031916630a85bd0160e11b1492505050949350505050565b805182518451865188516060948a948a948a948a948a94600094919092019092019091010167ffffffffffffffff8111801561210257600080fd5b506040519080825280601f01601f19166020018201604052801561212d576020820181803683370190505b509050806000805b88518110156121865788818151811061214a57fe5b602001015160f81c60f81b83838060010194508151811061216757fe5b60200101906001600160f81b031916908160001a905350600101612135565b5060005b87518110156121db5787818151811061219f57fe5b602001015160f81c60f81b8383806001019450815181106121bc57fe5b60200101906001600160f81b031916908160001a90535060010161218a565b5060005b8651811015612230578681815181106121f457fe5b602001015160f81c60f81b83838060010194508151811061221157fe5b60200101906001600160f81b031916908160001a9053506001016121df565b5060005b85518110156122855785818151811061224957fe5b602001015160f81c60f81b83838060010194508151811061226657fe5b60200101906001600160f81b031916908160001a905350600101612234565b5060005b84518110156122da5784818151811061229e57fe5b602001015160f81c60f81b8383806001019450815181106122bb57fe5b60200101906001600160f81b031916908160001a905350600101612289565b50909d9c50505050505050505050505050565b60009081526001919091016020526040902054151590565b6001600160a01b038216612360576040805162461bcd60e51b815260206004820181905260248201527f4552433732313a206d696e7420746f20746865207a65726f2061646472657373604482015290519081900360640190fd5b612369816118de565b156123bb576040805162461bcd60e51b815260206004820152601c60248201527f4552433732313a20746f6b656e20616c7265616479206d696e74656400000000604482015290519081900360640190fd5b6123c760008383610a6a565b6001600160a01b03821660009081526001602052604090206123e99082611d94565b506123f660028284611da0565b5060405181906001600160a01b038416906000907fddf252ad1be2c89b69c2b068fc378daa952ba7f163c4a11628f55a4df523b3ef908290a45050565b600081815260018301602052604081205480156124ef578354600019808301919081019060009087908390811061246657fe5b906000526020600020015490508087600001848154811061248357fe5b6000918252602080832090910192909255828152600189810190925260409020908401905586548790806124b357fe5b60019003818190600052602060002001600090559055866001016000878152602001908152602001600020600090556001945050505050610c88565b6000915050610c88565b600061250583836122ed565b61253b57508154600181810184556000848152602080822090930184905584548482528286019093526040902091909155610c88565b506000610c88565b6000828152600184016020526040812054806125a8575050604080518082018252838152602080820184815286546001818101895560008981528481209551600290930290950191825591519082015586548684528188019092529290912055611bb9565b828560000160018303815481106125bb57fe5b9060005260206000209060020201600101819055506000915050611bb9565b3b151590565b6060611bb68484600085856125f4856125da565b612645576040805162461bcd60e51b815260206004820152601d60248201527f416464726573733a2063616c6c20746f206e6f6e2d636f6e7472616374000000604482015290519081900360640190fd5b600080866001600160a01b031685876040518082805190602001908083835b602083106126835780518252601f199092019160209182019101612664565b6001836020036101000a03801982511681845116808217855250505050505090500191505060006040518083038185875af1925050503d80600081146126e5576040519150601f19603f3d011682016040523d82523d6000602084013e6126ea565b606091505b50915091506126fa828286612705565b979650505050505050565b60608315612714575081611bb9565b8251156127245782518084602001fd5b60405162461bcd60e51b8152602060048201818152845160248401528451859391928392604401919085019080838360008315611ef5578181015183820152602001611edd565b828054600181600116156101000203166002900490600052602060002090601f0160209004810192826127a157600085556127e7565b82601f106127ba57805160ff19168380011785556127e7565b828001600101855582156127e7579182015b828111156127e75782518255916020019190600101906127cc565b506127f39291506127f7565b5090565b5b808211156127f357600081556001016127f856fe456e756d657261626c655365743a20696e646578206f7574206f6620626f756e64734552433732313a207472616e7366657220746f206e6f6e20455243373231526563656976657220696d706c656d656e7465724f776e61626c653a206e6577206f776e657220697320746865207a65726f20616464726573734552433732313a207472616e7366657220746f20746865207a65726f20616464726573734552433732313a206f70657261746f7220717565727920666f72206e6f6e6578697374656e7420746f6b656e5468697320746f6b656e2068617320616c7265616479206265656e206d696e7465644552433732313a20617070726f76652063616c6c6572206973206e6f74206f776e6572206e6f7220617070726f76656420666f7220616c6c4552433732313a2062616c616e636520717565727920666f7220746865207a65726f20616464726573734552433732313a206f776e657220717565727920666f72206e6f6e6578697374656e7420746f6b656e456e756d657261626c654d61703a20696e646578206f7574206f6620626f756e64734552433732313a20617070726f76656420717565727920666f72206e6f6e6578697374656e7420746f6b656e4f776e61626c653a2063616c6c6572206973206e6f7420746865206f776e65724552433732313a207472616e73666572206f6620746f6b656e2074686174206973206e6f74206f776e4552433732314d657461646174613a2055524920717565727920666f72206e6f6e6578697374656e7420746f6b656e4552433732313a20617070726f76616c20746f2063757272656e74206f776e65724552433732313a207472616e736665722063616c6c6572206973206e6f74206f776e6572206e6f7220617070726f766564a2646970667358221220927ea8dcbac2da87ac53f5b9b238d248102bd158cc20ead3b60d5cfd4d4bf70a64736f6c63430007060033",
  "immutableReferences": {},
  "source": "// SPDX-License-Identifier: MIT\n\npragma solidity ^0.7.0;\n\n// @title: This Shard Does Not Exist\n// @author: Jonathan Howard\n\n/////////////////////////////////////////////////////////////////////////////\n//                                                                         //\n//                                                                         //\n//   //\n//   //\n//   //\n//   //\n//   //\n//   //\n//                                                                         //\n//             //\n//             //\n//             //\n//             //\n//             //\n//             //\n//                                                                         //\n//                                     //\n//                                     //\n//                                     //\n//                                     //\n//                                     //\n//                                     //\n//                                                                         //\n//                                                                         //\n/////////////////////////////////////////////////////////////////////////////\n\n// OpenZeppelin\nimport \"./token/ERC721/ERC721.sol\";\nimport \"./access/Ownable.sol\";\nimport \"./security/ReentrancyGuard.sol\";\nimport \"./introspection/ERC165.sol\";\nimport \"./utils/Strings.sol\";\nimport \"./access/Ownable.sol\";\n\ninterface FntnInterface {\n  function ownerOf(uint256 tokenId) external view returns (address owner);\n}\n\ncontract ThisShardDoesNotExist is ERC721, Ownable, ReentrancyGuard {\n  using SafeMath for uint8;\n  using SafeMath for uint256;\n  using Strings for string;\n\n  // Max NFTs total\n  uint public constant MAX_TOKENS = 666;\n\n  // Price in gwei per shard (0.069 ETH)\n  uint public constant SHARD_PRICE = 69000000000000000;\n\n  // Allow for starting/pausing sale\n  bool public hasSaleStarted = false;\n\n  // Next tokenId eligible to be minted\n  // First 175 are reserved for shard-hodlers\n  uint internal nextTokenId = 176;\n\n  //FNTN Contract\n  address public fntnAddress = 0x2Fb704d243cFA179fFaD4D87AcB1D36bcf243a44;\n  FntnInterface fntnContract = FntnInterface(fntnAddress);\n\n  /*\n   * Set up the basics\n   *\n   * @dev It will NOT be ready to start sale immediately upon deploy\n   */\n  constructor(string memory baseURI) ERC721(\"This Shard Does Not Exist\",\"AIFNTN\") {\n    setBaseURI(baseURI);\n  }\n\n  /*\n   * Get the tokens owned by _owner\n   */\n  function tokensOfOwner(address _owner) external view returns(uint256[] memory ) {\n    uint256 tokenCount = balanceOf(_owner);\n    if (tokenCount == 0) {\n      // Return an empty array\n      return new uint256[](0);\n    } else {\n      uint256[] memory result = new uint256[](tokenCount);\n      uint256 index;\n      for (index = 0; index < tokenCount; index++) {\n        result[index] = tokenOfOwnerByIndex(_owner, index);\n      }\n      return result;\n    }\n  }\n\n  /*\n   * Main function for the sale\n   *\n   * prerequisites\n   *  - not at max supply\n   *  - sale has started\n   */\n  function mint() external payable nonReentrant {\n    require(nextTokenId <= MAX_TOKENS, \"We are at max supply\");\n    require(hasSaleStarted, \"Sale hasn't started\");\n    require(msg.value == SHARD_PRICE, \"Ether value required is 0.069\");\n\n    _safeMint(msg.sender, nextTokenId++);\n  }\n\n  /*\n   * Buy the token reserved for your shard\n   *\n   * Prerequisites:\n   *  - not at max supply\n   *  - sale has started\n   *  - your wallet owns the shard ID in question\n   *\n   * Example input: To mint for FNTN // 137, you would input 137\n   */\n  function mintWithShard(uint shardId) external payable nonReentrant {\n    require(hasSaleStarted, \"Sale hasn't started\");\n    require(msg.value == SHARD_PRICE, \"Ether value required is 0.069\");\n    // Duplicate this here to potentially save people gas\n    require(shardId >= 1 && shardId <= 175, \"Enter a shardId from 1 to 175\");\n\n    // Get FNTN tokenId from shard number\n    uint fntnId = shardIdToTokenId(shardId);\n\n    // Ensure sender owns shard in question\n    require(fntnContract.ownerOf(fntnId) == msg.sender, \"Not the owner of this shard\");\n\n    // Mint if token doesn't exist\n    require(!_exists(shardId), \"This token has already been minted\");\n    _safeMint(msg.sender, shardId);\n  }\n\n  /*\n   * The tokenIds are not contiguous in the original contract\n   * Given the id of a shard (the numner in the title, eg \"FNTN // 62\")\n   * this outputs the actual tokenId in the original shared contract.\n   */\n  function shardIdToTokenId(uint shardId) public view returns (uint) {\n    // Check up front for a valid id. Saves gas on failure, but also on valid\n    // shardIds we can save some gas by not needing SafeMath function calls\n    require(shardId >= 1 && shardId <= 175, \"Enter a shardId from 1 to 175\");\n\n    uint tokenId = 0;\n\n    if (shardId == 1) {\n      tokenId = 1203;\n    } else if (shardId == 2) {\n      tokenId = 1420;\n    } else if (shardId >= 3 && shardId <= 5) {\n      tokenId = 1229 + shardId;\n    } else if (shardId >= 8 && shardId <= 36) {\n      tokenId = 1230 + shardId;\n    } else if (shardId >= 37 && shardId <= 58) {\n      tokenId = 1231 + shardId;\n    } else if (shardId >= 59 && shardId <= 62) {\n      tokenId = 1231 + shardId; // TODO: Isn't this one just contiguous then?\n    } else if (shardId >= 63 && shardId <= 75) {\n      tokenId = 1242 + shardId;\n    } else if (shardId >= 76 && shardId <= 146) {\n      tokenId = 1344 + shardId;\n    } else if (shardId >= 165 && shardId <= 175) {\n      tokenId = 1129 + shardId;\n    } else if (shardId == 175) {\n      tokenId = 175;\n    }\n\n    return tokenId;\n  }\n\n  /**\n   * @dev See {IERC165-supportsInterface}.\n   */\n  function supportsInterface(bytes4 interfaceId) public view override(ERC165) returns (bool) {\n    return ERC165.supportsInterface(interfaceId);\n  }\n\n  /**\n   * @dev See {IERC721Metadata-tokenURI}.\n   */\n  function tokenURI(uint256 tokenId) public view virtual override returns (string memory) {\n    require(_exists(tokenId), \"ERC721Metadata: URI query for nonexistent token\");\n\n    string memory base = baseURI();\n    string memory fragment = Strings.strConcat(Strings.uint2str(tokenId), \"/index.json\");\n    \n    return Strings.strConcat(base, fragment);\n  }\n    \n\n  // Admin functions\n  function setBaseURI(string memory baseURI) public onlyOwner {\n    _setBaseURI(baseURI);\n  }\n\n  function getNextPublicTokenId() public view returns(uint) {\n    return nextTokenId;\n  }\n\n  function startSale() public onlyOwner {\n    hasSaleStarted = true;\n  }\n\n  function pauseSale() public onlyOwner {\n    hasSaleStarted = false;\n  }\n\n  function withdrawAll() public payable onlyOwner {\n    require(payable(msg.sender).send(address(this).balance));\n  }\n}\n",
  "sourcePath": "/Users/jon/Code/shl0ms-ai-shards/contracts/ThisShardDoesNotExist.sol",
  "compiler": {
    "name": "solc",
    "version": "0.7.6+commit.7338295f.Emscripten.clang"
  },
  "schemaVersion": "3.3.4",
  "updatedAt": "2021-09-05T22:04:28.897Z",
  "devdoc": {
    "kind": "dev",
    "methods": {
      "approve(address,uint256)": {
        "details": "See {IERC721-approve}."
      },
      "balanceOf(address)": {
        "details": "See {IERC721-balanceOf}."
      },
      "baseURI()": {
        "details": "Returns the base URI set via {_setBaseURI}. This will be automatically added as a prefix in {tokenURI} to each token's URI, or to the token ID if no specific URI is set for that token ID."
      },
      "getApproved(uint256)": {
        "details": "See {IERC721-getApproved}."
      },
      "isApprovedForAll(address,address)": {
        "details": "See {IERC721-isApprovedForAll}."
      },
      "name()": {
        "details": "See {IERC721Metadata-name}."
      },
      "owner()": {
        "details": "Returns the address of the current owner."
      },
      "ownerOf(uint256)": {
        "details": "See {IERC721-ownerOf}."
      },
      "renounceOwnership()": {
        "details": "Leaves the contract without owner. It will not be possible to call `onlyOwner` functions anymore. Can only be called by the current owner. NOTE: Renouncing ownership will leave the contract without an owner, thereby removing any functionality that is only available to the owner."
      },
      "safeTransferFrom(address,address,uint256)": {
        "details": "See {IERC721-safeTransferFrom}."
      },
      "safeTransferFrom(address,address,uint256,bytes)": {
        "details": "See {IERC721-safeTransferFrom}."
      },
      "setApprovalForAll(address,bool)": {
        "details": "See {IERC721-setApprovalForAll}."
      },
      "supportsInterface(bytes4)": {
        "details": "See {IERC165-supportsInterface}."
      },
      "symbol()": {
        "details": "See {IERC721Metadata-symbol}."
      },
      "tokenByIndex(uint256)": {
        "details": "See {IERC721Enumerable-tokenByIndex}."
      },
      "tokenOfOwnerByIndex(address,uint256)": {
        "details": "See {IERC721Enumerable-tokenOfOwnerByIndex}."
      },
      "tokenURI(uint256)": {
        "details": "See {IERC721Metadata-tokenURI}."
      },
      "totalSupply()": {
        "details": "See {IERC721Enumerable-totalSupply}."
      },
      "transferFrom(address,address,uint256)": {
        "details": "See {IERC721-transferFrom}."
      },
      "transferOwnership(address)": {
        "details": "Transfers ownership of the contract to a new account (`newOwner`). Can only be called by the current owner."
      }
    },
    "version": 1
  },
  "userdoc": {
    "kind": "user",
    "methods": {},
    "version": 1
  }
}